:020000040800F2
:1000000000000220C16200082D1100082F11000815
:1000100031110008331100083511000800000000FC
:100020000000000000000000000000003152000845
:100030003711000800000000D1520008B74D000839
:1000400011630008116300081163000811630008C0
:1000500011630008116300081163000811630008B0
:1000600011630008116300081163000811630008A0
:100070001163000811630008116300081163000890
:1000800011630008116300081163000800000000FC
:1000900000000000000000000000000011630008E4
:1000A000116300083911000811630008116300088A
:1000B0001163000811630008116300081163000850
:1000C0001163000811630008116300081163000840
:1000D00011630008116300081163000800000000AC
:1000E000116300081163000811630008000000009C
:1000F0000000000000000000000000001163000884
:10010000000000001163000811630008116300087B
:1001100000000000000000000000000000000000DF
:1001200011630008116300081163000811630008DF
:100130001163000800000000000000000000000043
:100140000000000000000000000000001163000833
:1001500011630008116300081163000811630008AF
:100160001163000811630008000000000000000097
:10017000000000000000000000000000000000007F
:1001800000000000116300080000000000000000F3
:0801900011630008116300086F
:1001A00010B5054C237833B9044B13B10448AFF3B1
:1001B00000800123237010BDD80100200000000042
:1001C0006C8C000808B5034B1BB103490348AFF31F
:1001D000008008BD00000000DC0100206C8C0008DD
:1001E00001F0FF01102A2BDB10F0070F08D010F8E8
:1001F000013B013A8B422DD010F0070F42B3F6D1EC
:10020000F0B441EA012141EA014122F007047FF004
:1002100000070023F0E80256083C85EA010586EA5B
:10022000010685FA47F5A3FA87F586FA47F6A5FA97
:1002300087F68EB9EED1F0BC01F0FF0102F00702A3
:1002400032B110F8013B013A83EA010313B1F8D14E
:100250000020704701387047002D06BF354603382F
:10026000073815F0010F07D1013015F4807F02BF68
:10027000013015F4C03F0130F0BC0138704700BFB9
:10028000034613F8012B002AFBD1181A01387047D6
:1002900081F0004102E000BF83F0004330B54FEA37
:1002A00041044FEA430594EA050F08BF90EA020FA4
:1002B0001FBF54EA000C55EA020C7FEA645C7FEA37
:1002C000655C00F0E2804FEA5454D4EB5555B8BF5A
:1002D0006D420CDD2C4480EA020281EA030382EACB
:1002E000000083EA010180EA020281EA0303362D5D
:1002F00088BF30BD11F0004F4FEA01314FF4801C30
:100300004CEA113102D0404261EB410113F0004F41
:100310004FEA03334CEA133302D0524263EB4303F8
:1003200094EA050F00F0A780A4F10104D5F1200E96
:100330000DDB02FA0EFC22FA05F2801841F10001F1
:1003400003FA0EF2801843FA05F359410EE0A5F1C5
:1003500020050EF1200E012A03FA0EFC28BF4CF0F6
:10036000020C43FA05F3C01851EBE37101F00045AC
:1003700007D54FF0000EDCF1000C7EEB00006EEBB9
:100380000101B1F5801F1BD3B1F5001F0CD3490843
:100390005FEA30004FEA3C0C04F101044FEA44529A
:1003A00012F5800F80F09A80BCF1004F08BF5FEA21
:1003B000500C50F1000041EB045141EA050130BD01
:1003C0005FEA4C0C404141EB0101013C28BFB1F513
:1003D000801FE9D291F0000F04BF01460020B1FA5E
:1003E00081F308BF2033A3F10B03B3F120020CDA31
:1003F0000C3208DD02F1140CC2F10C0201FA0CF00F
:1004000021FA02F10CE002F11402D8BFC2F1200C73
:1004100001FA02F120FA0CFCDCBF41EA0C01904029
:10042000E41AA2BF01EB0451294330BD6FEA040472
:100430001F3C1CDA0C340EDC04F11404C4F120025D
:1004400020FA04F001FA02F340EA030021FA04F36F
:1004500045EA030130BDC4F10C04C4F1200220FAC6
:1004600002F001FA04F340EA0300294630BD21FA04
:1004700004F0294630BD94F0000F83F4801306BFCA
:1004800081F480110134013D4EE77FEA645C18BFBE
:100490007FEA655C29D094EA050F08BF90EA020F55
:1004A00005D054EA000C04BF1946104630BD91EA4D
:1004B000030F1EBF0021002030BD5FEA545C05D150
:1004C0004000494128BF41F0004130BD14F580048F
:1004D0003CBF01F5801130BD01F0004545F0FE4103
:1004E00041F470014FF0000030BD7FEA645C1ABF38
:1004F000194610467FEA655C1CBF0B46024650EA6F
:10050000013406BF52EA033591EA030F41F400219A
:1005100030BD00BF90F0000F04BF0021704730B520
:100520004FF4806404F132044FF000054FF00001F5
:1005300050E700BF90F0000F04BF0021704730B5B6
:100540004FF4806404F1320410F0004548BF40428B
:100550004FF000013EE700BF42004FEAE2014FEAE0
:1005600031014FEA02701FBF12F07F4393F07F4FBB
:1005700081F06051704732F07F4208BF704793F0BE
:100580007F4F04BF41F40021704730B54FF46074D1
:1005900001F0004521F000411CE700BF50EA0102D4
:1005A00008BF704730B54FF000050AE050EA01027D
:1005B00008BF704730B511F0004502D5404261EBED
:1005C00041014FF4806404F132045FEA915C3FF42E
:1005D000D8AE4FF003025FEADC0C18BF03325FEACB
:1005E000DC0C18BF033202EBDC02C2F1200300FA7C
:1005F00003FC20FA02F001FA03FE40EA0E0021FAA1
:1006000002F11444BDE600BF70B54FF0FF0C4CF48E
:10061000E06C1CEA11541DBF1CEA135594EA0C0F40
:1006200095EA0C0F00F0DEF82C4481EA030621EA7B
:100630004C5123EA4C5350EA013518BF52EA0335B6
:1006400041F4801143F4801338D0A0FB02CE4FF068
:100650000005E1FB02E506F00042E0FB03E54FF098
:100660000006E1FB03569CF0000F18BF4EF0010E90
:10067000A4F1FF04B6F5007F64F5407404D25FEA8C
:100680004E0E6D4146EB060642EAC62141EA55513F
:100690004FEAC52040EA5E504FEACE2EB4F1FD0C81
:1006A00088BFBCF5E06F1ED8BEF1004F08BF5FEAFF
:1006B000500E50F1000041EB045170BD06F00046B1
:1006C00046EA010140EA020081EA0301B4EB5C045E
:1006D000C2BFD4EB0C0541EA045170BD41F4801156
:1006E0004FF0000E013C00F3AB8014F1360FDEBF7B
:1006F000002001F0004170BDC4F10004203C35DA57
:100700000C341BDC04F11404C4F1200500FA05F3D9
:1007100020FA04F001FA05F240EA020001F000427A
:1007200021F0004110EBD37021FA04F642EB0601F0
:100730005EEA430E08BF20EAD37070BDC4F10C041A
:10074000C4F1200500FA04F320FA05F001FA04F2DE
:1007500040EA020001F0004110EBD37041F10001CA
:100760005EEA430E08BF20EAD37070BDC4F12005D5
:1007700000FA05F24EEA020E20FA04F301FA05F23D
:1007800043EA020321FA04F001F0004121FA04F2E5
:1007900020EA020000EBD3705EEA430E08BF20EAB5
:1007A000D37070BD94F0000F0FD101F000464000EF
:1007B00041EB010111F4801F08BF013CF7D041EA71
:1007C000060195F0000F18BF704703F00046520075
:1007D00043EB030313F4801F08BF013DF7D043EA46
:1007E0000603704794EA0C0F0CEA135518BF95EAFC
:1007F0000C0F0CD050EA410618BF52EA4306D1D183
:1008000081EA030101F000414FF0000070BD50EAA1
:10081000410606BF1046194652EA430619D094EA2B
:100820000C0F02D150EA013613D195EA0C0F05D115
:1008300052EA03361CBF104619460AD181EA030169
:1008400001F0004141F0FE4141F470014FF0000021
:1008500070BD41F0FE4141F4780170BD70B54FF0BC
:10086000FF0C4CF4E06C1CEA11541DBF1CEA13553C
:1008700094EA0C0F95EA0C0F00F0A7F8A4EB05041E
:1008800081EA030E52EA03354FEA013100F0888015
:100890004FEA03334FF0805545EA131343EA1263DE
:1008A0004FEA022245EA111545EA10654FEA002693
:1008B0000EF000419D4208BF964244F1FD0404F54C
:1008C000407402D25B084FEA3202B61A65EB0305A8
:1008D0005B084FEA32024FF480104FF4002CB6EB65
:1008E000020E75EB030E22BFB61A754640EA0C00E5
:1008F0005B084FEA3202B6EB020E75EB030E22BF25
:10090000B61A754640EA5C005B084FEA3202B6EB65
:10091000020E75EB030E22BFB61A754640EA9C0024
:100920005B084FEA3202B6EB020E75EB030E22BFF4
:10093000B61A754640EADC0055EA060E18D04FEAB2
:10094000051545EA16754FEA06164FEAC30343EA52
:1009500052734FEAC2025FEA1C1CC0D111F4801F1F
:100960000BD141EA00014FF000004FF0004CB6E718
:1009700011F4801F04BF01430020B4F1FD0C88BFB7
:10098000BCF5E06F3FF6AFAEB5EB030C04BFB6EBC2
:10099000020C5FEA500C50F1000041EB045170BDB5
:1009A0000EF0004E4EEA113114EB5C04C2BFD4EBE2
:1009B0000C0541EA045170BD41F480114FF0000E66
:1009C000013C90E645EA060E8DE60CEA135594EAE2
:1009D0000C0F08BF95EA0C0F3FF43BAF94EA0C0FE5
:1009E0000AD150EA01347FF434AF95EA0C0F7FF45A
:1009F00025AF104619462CE795EA0C0F06D152EAAE
:100A000003353FF4FDAE1046194622E750EA410691
:100A100018BF52EA43067FF4C5AE50EA41047FF4A2
:100A20000DAF52EA43057FF4EBAE12E74FF0FF3C07
:100A300006E000BF4FF0010C02E000BF4FF0010CD8
:100A40004DF804CD4FEA410C7FEA6C5C4FEA430C51
:100A500018BF7FEA6C5C1BD001B050EA410C0CBFA0
:100A600052EA430C91EA030F02BF90EA020F002002
:100A7000704710F1000F91EA030F58BF994208BF69
:100A800090422CBFD8176FEAE37040F00100704726
:100A90004FEA410C7FEA6C5C02D150EA013C07D17D
:100AA0004FEA430C7FEA6C5CD6D152EA033CD3D0C8
:100AB0005DF8040B704700BF8446104662468C46C2
:100AC0001946634600E000BF01B5FFF7B7FF0028F5
:100AD00048BF10F1000F01BD4DF808EDFFF7F4FF1E
:100AE0000CBF012000205DF808FB00BF4DF808EDA9
:100AF000FFF7EAFF34BF012000205DF808FB00BFCC
:100B00004DF808EDFFF7E0FF94BF012000205DF8ED
:100B100008FB00BF4DF808EDFFF7CEFF94BF0120A2
:100B200000205DF808FB00BF4DF808EDFFF7C4FF9B
:100B300034BF012000205DF808FB00BF4FEA410CE4
:100B40007FEA6C5C02D150EA013C0AD14FEA430CC7
:100B50007FEA6C5C02D152EA033C02D14FF0000004
:100B600070474FF0010070474FEA410212F5001242
:100B700015D211D56FF47873B3EB625212D94FEAE4
:100B8000C12343F0004343EA505311F0004F23FACE
:100B900002F018BF404270474FF00000704750EA23
:100BA000013005D111F0004008BF6FF000407047E0
:100BB0004FF00000704700BF53B94AB9002908BF81
:100BC00000281CBF4FF0FF314FF0FF3000F088B914
:100BD000ADF1080C6DE904CE00F006F8DDF804E094
:100BE000DDE9022304B070472DE9F047089D8E46E9
:100BF00004468846002B4AD18A42174662D9B2FA87
:100C000082F64EB1C6F1200301FA06F820FA03F38A
:100C1000B74043EA0808B4404FEA174E1FFA87FC72
:100C2000B8FBFEF1230C0EFB118843EA084301FBDD
:100C30000CF29A4209D9FB1801F1FF3080F0EA80EA
:100C40009A4240F2E78002393B449A1AA3B2B2FBBF
:100C5000FEF00EFB102243EA024300FB0CFC9C4515
:100C600009D9FB1800F1FF3280F0D6809C4540F294
:100C7000D3803B44023840EA0140A3EB0C0300213F
:100C80001DB1F3400022C5E90032BDE8F0878B4278
:100C900005D90DB1C5E9000100210846F5E7B3FA11
:100CA00083F1002946D1734502D3824200F20581C7
:100CB000841A6EEB030201209046002DE5D0C5E9B1
:100CC0000048E2E7002A00F09080B2FA82F6002E97
:100CD00040F0A4808A1A030C4FEA174E80B2BCB2CF
:100CE0000121B2FBFEFC0EFB1C2243EA024304FB83
:100CF0000CF29A4207D9FB180CF1FF3802D29A4243
:100D000000F2E080C4469B1AB3FBFEF20EFB1233E6
:100D100040EA034302FB04F49C4207D9FB1802F1AA
:100D2000FF3002D29C4200F2CA8002461B1B42EAFC
:100D30000C40A5E7C1F120068B4022FA06F71F43BD
:100D40000EFA01F420FA06F32EFA06FE4FEA1749CE
:100D5000234300FA01F81FFA87FCBEFBF9F01C0CD4
:100D600009FB10EE44EA0E4400FB0CFEA64502FA15
:100D700001F209D93C1900F1FF3A80F09C80A645A8
:100D800040F2998002383C44A4EB0E041FFA83FE23
:100D9000B4FBF9F309FB13444EEA044403FB0CFCD7
:100DA000A44508D93C1903F1FF3E80F08280A44598
:100DB0007FD9023B3C4443EA0040A4EB0C04A0FB77
:100DC00002EC64457346E14662D35FD05DB1B8EB97
:100DD000030264EB090404FA06F622FA01F31E4347
:100DE000CC40C5E9006400214FE7B1FBF2FC010CE7
:100DF00041EA0E4180B240EA01423B4638463C4659
:100E0000B846BE462026B1FBF7F1A2EB080241EA44
:100E10000C4166E7014618E710462CE7C6F12002B0
:100E20002EFA02F3B740B14020FA02F24FEA174E11
:100E30000A43B3FBFEF8BCB20EFB1833110C41EAB7
:100E4000034108FB04F9B04089454FEA104380B2E2
:100E50003ED9791808F1FF3C01D289451FD8A1EB92
:100E60000901B1FBFEF909FB04F80EFB191192B25E
:100E700042EA0142424529D2BA1809F1FF31C4D2EF
:100E80004245C2D2A9F102013A44BEE7F0459DD2E3
:100E9000BEEB02036CEB070C0138E14696E7A7EBCB
:100EA00009094944A8F1020CB1FBFEF909FB04F859
:100EB000DBE773467FE7504666E70846FDE63B44BE
:100EC000023A33E7ACF1020C3B441CE749469CE78D
:100ED000A1EB0901C446B1FBFEF909FB04F8C4E724
:100EE000704700BF08B50268034B9A4200D008BDA6
:100EF00002F088FCFBE700BF0000014072B6FEE78D
:100F000000B595B03022002108A805F065FF002348
:100F10000393049305930693079301931E4A116C60
:100F200041F080511164126C02F080520192019ADA
:100F300002931A4A116841F440411160126802F4A8
:100F400040420292029A0221089101220B92102241
:100F50000C920E910F9310924FF4A87311930423E7
:100F60001293139308A801F083FF80B90F23039312
:100F700002210491002305934FF4805206920793B7
:100F800003A802F0DFF920B915B05DF804FBFFF704
:100F9000B5FFFFF7B3FF00BF00380240007000400C
:100FA00008B502F015FCFFF7ABFF00F00BF804F0FA
:100FB00003FB04F0A3FF03F00BFF00F099F803F02C
:100FC00019FFFEE730B58BB0002405940694079412
:100FD000089409940194224B1A6B42F004021A639C
:100FE0001A6B02F004020192019A02941A6B42F009
:100FF00080021A631A6B02F080020292029A039432
:101000001A6B42F001021A631A6B02F0010203929A
:10101000039A04941A6B42F002021A631B6B03F0EA
:1010200002030493049B0F4D22462021284602F020
:1010300061FB4FF4005305934FF404130693079498
:1010400005A9094802F072FA2023059301230693AB
:101050000794089405A9284602F068FA0BB030BD41
:1010600000380240000002400008024030B587B05E
:101070000DF1040C1A4C0FCCACE80F0023688CF86F
:10108000003001A8FFF7FCF84FF0FF3382B201A94E
:10109000144805F0AEF800F0E1F8002000F042F945
:1010A0000021084600F0BCF800F014F9642003F0B9
:1010B00021FF0D4D00242C604FF4FA7003F01AFF4D
:1010C0002A680A4B1A602C6003F0B0FE00F060F949
:1010D0002146142000F074F900F0FCF8FEE700BF90
:1010E000888C0008986E0020FC010020F801002088
:1010F00008B5044A0021044803F0A2FE034B18601F
:1011000008BD00BF789200086D100008F4010020AF
:10111000054B1A686FF47A739A4203D2024A136835
:1011200001331360704700BFFC010020FEE7FEE7BB
:10113000FEE7FEE7FEE7704708B5024801F068FDEC
:1011400008BD00BF0002002000B583B0002200925D
:101150000D4B596C41F480415964596C01F4804144
:10116000009100990192196C41F0805119641B6C37
:1011700003F080530193019B0F216FF0010002F0F7
:1011800013FB03B05DF804FB0038024030B589B0B2
:101190000546002401941D4B5A6C42F001025A642A
:1011A0005B6C03F001030193019B02A903A802F009
:1011B0009FF902F08DF9164AA2FB00239B0C013B1C
:1011C0001448154A026040F2E732C260436004618D
:1011D0008460846101F01EFE044610B1204609B00F
:1011E00030BD0C4801F0D4FC04460028F6D119208B
:1011F00002F0EAFA0F2D01D90124EFE70022294677
:10120000192002F0D1FA054B1D60E7E700380240D3
:1012100083DE1B4300020020000001400400002088
:10122000024B1870024B1970704700BF4902002032
:101230004802002000B585B000238DF80C308DF8F1
:101240000D0064230093022303AA7821024804F0CE
:10125000E7FC05B05DF804FB446E002008B564208F
:1012600003F048FEA820FFF7E5FF3F20FFF7E2FF6D
:10127000D320FFF7DFFF0020FFF7DCFF4020FFF760
:10128000D9FFA020FFF7D6FFC020FFF7D3FFDA2059
:10129000FFF7D0FF1220FFF7CDFF8120FFF7CAFF35
:1012A0007F20FFF7C7FFA420FFF7C4FFA620FFF7AA
:1012B000C1FFD520FFF7BEFF8020FFF7BBFF8D20C9
:1012C000FFF7B8FF1420FFF7B5FFAF20FFF7B2FF1D
:1012D00008BD000010B584B000241AE0A4F150004D
:1012E000C0B2FFF7A7FF0020FFF7A4FF1020FFF711
:1012F000A1FF6423029380230193084B03EBC413E3
:101300000093012340227821054804F045FD013473
:10131000E4B2072CE2D904B010BD00BF4C0200209B
:10132000446E002008B5012806D000214FF48062E9
:10133000024805F051FD08BDFF21F7E74C020020EF
:101340003F2913D810F0800F10D1012A0FD0CB08FD
:101350000E4A02EBC31212F800C001F0070101238C
:101360008B40DB435BB20CEA030313547047CA089B
:10137000064B03EBC2131A5C01F007014FF0010C9E
:101380000CFA01F10A431A54704700BF4C020020C6
:1013900000B585B0012303934FF0FF32029228225B
:1013A00001920093034A0449044801F06FFB05B021
:1013B0005DF804FB9C1500204C060020A88C00085A
:1013C0002DE9F04780460F46224800F095FC814603
:1013D000002636E007EB460108EB44000122C9B2C3
:1013E000C0B2FFF7ADFF0135012DF3DD0AF1010AAF
:1013F000BAF1010F17DC0025F6E74FF0000AF7E716
:1014000007EB460108EB44000022C9B2C0B2FFF767
:1014100097FF0135012DF3DD0AF1010ABAF1010F41
:1014200001DC0025F6E701344C4509DA3246214655
:10143000084801F0B1F90028DFD14FF0000AEDE7CC
:1014400001364E4501DA0024EEE7FFF743FFBDE821
:10145000F08700BF9C15002000B5864607220020BB
:1014600010E0C309C3EBC30C03EB8C0383EA400316
:101470005BB241FA02F000F0010010FB0EF05840A0
:10148000C0B2013A002AECDA5DF804FB012823D04F
:1014900000B50246114880FB02301044D317C3EB5D
:1014A000A003981C00EB400C0CEBC20C0CF1050CDB
:1014B00001334FEA830E9CFBFEFC4FEA4C0C92007A
:1014C0000A3203E0CA54013BA2EB0C02002BF9DC08
:1014D00006230B705DF804FB0020704793244992AB
:1014E000084100F001007047B1F5004F39D208B54E
:1014F0000138072827D8DFE800F00413261C262629
:10150000231E01EB810149000231194B83FB0123AA
:10151000A3EBE17000281DDBB0F5004F24DA08BD15
:1015200001EB810301EB4301013101EBD171481063
:10153000F0E7C800EEE701EB410301EB8300E9E7C8
:1015400009B91820E8E70B4B0B4A40F263310B480E
:1015500004F0E0FE0A4B084A40F26631074804F006
:10156000D9FE4FF0FF3070474FF0FF30D7E700BF94
:1015700056555555C48C0008F8940008CC8C0008CA
:10158000E48C000808B54B1E272B0FD80731174BEA
:1015900083FB0123C917C1EBE301013807281CD8DD
:1015A000DFE800F00B0F1B131B1B2217104B114A17
:1015B00040F2F631104804F0ADFE104B53F8210014
:1015C00008BD0F4B53F82100FAE70E4B53F82100EA
:1015D000F6E70D4B53F82100F2E70C4B054A40F2B9
:1015E000FE31054804F096FE0020E9E77978787826
:1015F000F08C0008B0940008CC8C0008A49400087B
:10160000989400088C94000880940008C48C00080A
:101610002DE9F04789469246804608B300242546C6
:101620004C453DD2220108EB04135E68DF68B6F535
:10163000004F20D2B7F5004F24D2514618F80200CF
:10164000FFF7A0FF102824D801238340B34234DDE4
:10165000043038440544B5F5004F31DA0134DFE792
:1016600011B90C460025DBE7174B184A40F2DF3171
:10167000174804F04FFE174B144A4FF47971144881
:1016800004F048FE144B114A40F2E531104804F0D2
:1016900041FE124B0D4A40F2E7310D4804F03AFE8C
:1016A000B5F5004F02D22846BDE8F0870C4B074A3B
:1016B00040F2EE31064804F02DFE4FF0FF35F2E720
:1016C0004FF0FF35EFE700BF388D0008C4940008E5
:1016D000CC8C0008548D00087C8D0008A88D000873
:1016E000C48D000838B5102905D830FA01F402D1AC
:1016F00001F1FF3E18E00E4B0E4ABD210E4804F0EA
:1017000009FE1968CD10545D20FA0EFC0CF0010C96
:10171000C94301F007010CFA01F1214351550EF1C3
:10172000FF3E196801311960BEF1000FE9DA38BDDA
:10173000E88D000858940008CC8C000808B5431EBA
:10174000272B22D8024600F1080300FB03F30433E1
:101750001801012A13DD144B83FB02131344D11724
:10176000C1EBA301023101EB810303EB83030A3BCD
:1017700001FB03F3373BC01A062A00DD2438A0F131
:10178000D003B3F5E64F07D808BD084B084A40F22E
:101790005711084804F0BEFD074B054A40F25F119F
:1017A000044804F0B7FD00BF932449922C8E000832
:1017B000F4930008CC8C00086C8E000838B503291F
:1017C00014D805460C46FFF7B9FF002815DB04EBDB
:1017D000840304EBC3040A4B23445B57094A2244A5
:1017E000525702FB03F3C3EBE00038BD064B074A38
:1017F0004FF4A671064804F08DFD0730E7E700BFFF
:10180000B495000810950008908E00086C940008AC
:10181000CC8C000808B50378A3F1150CBCF19C0F23
:1018200011D800290FDB8B420DDD002A0BDB934220
:1018300009DD02FB031100EBE10001F00701407834
:10184000FFF74EFE08BD034B034A40F20631034842
:1018500004F060FDA08E0008D0930008CC8C000836
:1018600008B590F800C0ACF1150EBEF19C0F15D86C
:10187000002913DB8C4511DD002A0FDB94450DDDBB
:1018800002FB0C1101F0070CC91001316BB1435C74
:10189000012202FA0CF21343435408BD074B084AD5
:1018A00040F20F31074804F035FD425C012303FA92
:1018B0000CF3DB435BB213404354EEE7A08E000809
:1018C000BC930008CC8C000890F800C0002905DB10
:1018D0008C4503DD002A01DB944500DC704708B528
:1018E000FFF7BEFF08BD2DE9F04780460F461646BC
:1018F0009A46DDF8209000250AE00123EA1904EB5E
:1019000008014846FFF7ACFF0134B442F5DB01356E
:10191000554501DA0024F8E7BDE8F08708B54368CB
:1019200001EB4101994207DB002B35DD82689A42C9
:1019300009D00022104631E01B4B1C4A4FF4347191
:101940001B4804F0E7FCC16803EB4302914202D05C
:101950000022104622E002699A4202D0002210467C
:101960001CE042699A4202D00022104616E001684B
:101970004FEA830CB1EB830F04DB82699A4209DAE8
:10198000002200E000228069844509DC994209DBDD
:10199000012003E00122F6E700221046104408BDB2
:1019A0000020FBE70020F9E7F08E000874930008A0
:1019B000CC8C00082DE9F047441E1D2C0DD807469D
:1019C0000D4602460021284605F006FA4FF00109AF
:1019D00005F804904FF0000A0DE0124B124A4FF444
:1019E000B571124804F096FC02214846FFF734FD19
:1019F00081460AF1010ABA4512DA0024BC42F3DA40
:101A000005EB04084946285DFFF726FD28550134FB
:101A1000BC42F3DA98F80130584088F80000EDE74E
:101A2000BDE8F087008F000828940008CC8C0008DF
:101A30002DE9F04385B080460F464FEA800909F151
:101A4000110404FB04F3073332D4DB105A1C0021C9
:101A5000384605F0C1F93C70009723460122002169
:101A60000620FFF740FF00970123224606210020B1
:101A7000FFF739FF009709231A4600210846FFF7B0
:101A800032FF09F1090400970923082200212046AA
:101A9000FFF729FF00970823092221460020FFF7BE
:101AA00022FF02A94046FFF7F1FC0646002523E08D
:101AB0000733CAE7A4B1731EA34216D110E005F1A3
:101AC00010036B4413F8080C04F110036B4413F873
:101AD000081C009705231A4602390238FFF703FF56
:101AE0000134B44207DA002DE4D0731EAB42E6D1D4
:101AF000002CE4D1F4E70135B54201DA0024F0E727
:101B0000B8F1060F02DC05B0BDE8F08309F1060963
:101B100000970623032200214846FFF7E4FE0097C2
:101B20000323062249460020FFF7DDFEEBE7000015
:101B30002DE9F04F83B001900C9D03F1FF3ABAF10B
:101B40001D0F0AD88B4690461F461A46002128468C
:101B500005F042F94FF0000913E0144B144A40F22B
:101B60008511144804F0D6FB314618F80400FFF73D
:101B700073FC2B5D43402B550134BC42F4DB09F16F
:101B80000109D9450EDA019B13F80960294611F8BD
:101B9000013B5E405246284605F004F9002405F852
:101BA0000A40EAE703B0BDE8F08F00BF008F0008ED
:101BB0000C940008CC8C00082DE9F04F8FB00590F4
:101BC000032A2CD80F4691461D46002927DD2829D7
:101BD00025DC02EB820302EBC3032F4A1A4454565E
:101BE0002E4A134413F901800846FFF7A7FD002889
:101BF0001CDBC61049463846FFF7E0FD049096FB13
:101C0000F4FA04FB1A66A31B0393AAEB080A06A9BD
:101C10004046FFF7CFFE059F4FF0000B22E0204B20
:101C2000204A40F22B11204804F074FB0730E0E713
:101C3000F95CA95401332244B34204DA5345F7D185
:101C40000399521AF4E7049B0BEB0302002304E010
:101C500019F80310A954013322444345F8DB3744F3
:101C60000BF1010BA34514DA039B9B45B4BF564609
:101C70000AF10106059B049A03EB0209CDF80090D6
:101C8000434606AA31463846FFF752FF5A4600231C
:101C9000D2E70FB0BDE8F08F10950008B4950008AA
:101CA0003C8F000844940008CC8C000838B50546E9
:101CB0000C460B6803B9154418222146201D05F077
:101CC00071F8256038BD38B58C4615461C4650B9AC
:101CD000224629460CEB0400FFF7E8FF2146284680
:101CE000FFF71CFE38BD1A4629466046FFF7DEFFA7
:101CF0004FF0000CECE7000008B528B10078A0F127
:101D000015039C2B07D808BD064B074A40F2F32168
:101D1000064804F0FFFA064B034A40F2F521034857
:101D200004F0F8FAA48F000834930008CC8C000863
:101D3000B48F00082DE9F04F85B00390019117464C
:101D40001046FFF7D9FF064600F1FF3AD3464FF0A1
:101D50000008CDF808A036E04FF0050B39E0D14679
:101D60004A4629463846FFF755FD18B9019BB8EB9E
:101D7000C30F0DDB0134012C1DDCABEB04050BF1B3
:101D8000010313F0020FEAD1029BA3EB0A09E7E774
:101D90004FEAE8036FEA080101F00701039AD05CFB
:101DA000FFF79EFB03464A4629463846FFF758FD93
:101DB00008F10108DEE70AF1010AB24501DA002460
:101DC000D9E7ABF1020BBBF1000F05DDBBF1060F4C
:101DD000C2D04FF0000AF0E7019BB8EBC30F02D16D
:101DE00005B0BDE8F08F034B034A40F25921034888
:101DF00004F090FA10900008E4930008CC8C0008DE
:101E00002DE9F04F83B007468B46FFF775FF8246FA
:101E100007240CE00023224606213846FFF720FD68
:101E20000023062221463846FFF71AFD0234AAF1A4
:101E30000703A342EEDC6FF003062DE0022B10D067
:101E4000042B0ED00134042C25DC84EAE472A2EBCE
:101E5000E47286EAE673A3EBE6739342EEDC134684
:101E6000ECE7E51C06F1030900234A4629463846FB
:101E7000FFF72AFDAAF1040800234A4608EB0401F3
:101E80003846FFF721FD002308EB060229463846B5
:101E9000FFF71AFDD6E70136042E02DC6FF00304CB
:101EA000D1E769465846FFF7F1FA81464FF000083E
:101EB00038E01EB109F1FF33B34205D101364E457A
:101EC0002EDAB8F1000FF4D009F1FF33434524D1E5
:101ED000002EF3D04FF0FF351AE0B5B1002338469D
:101EE000FFF7BEFC0134012C11DC08F108036B4440
:101EF00013F8081C214406F108036B4413F8082C5E
:101F00002A44002CE9D00023E9E70123E7E7013563
:101F1000012DD3DC4FF0FF34E5E74FF0FF35F7E755
:101F200008F10108C84501DA0026C8E7BBF1060F31
:101F300013DC03B0BDE8F08FE31241F6257101FB1D
:101F400003F383EA440401320B2AF5DD44EA0B343F
:101F50005FEAA44904D1C84620E05C460022F3E7CA
:101F6000114B124A40F2F511114804F0D3F9AAF1CD
:101F70000B05354404F0010B5B46424629463846C2
:101F8000FFF76EFC5B462A4641463846FFF768FC81
:101F900064100136022EEADD08F10108B8F1050FE0
:101FA000C7DC4E46F6E700BF24900008A093000867
:101FB000CC8C00082DE9F04F8BB00446FFF79CFE57
:101FC00005464FF00008C1463AE009F103090DE06B
:101FD0002A4603A95046FFF769FEE7B1424631465B
:101FE0002046FFF717FC07464FF0010A0136AE42C4
:101FF0001ADA424631462046FFF70CFCB842E7D1D8
:102000000AF1010ABAF1050FDFD0BAF1050FEDDDD3
:1020100009F10109EAE7294603A8FFF77FFC00EB75
:10202000800009EBC009D9E72B4603AA5146384680
:10203000FFF749FE00EB800009EBC00908F1010839
:10204000A8450ADA0027039704970597069707978C
:10205000089709973E46BA46C9E74FF000083AE0AC
:1020600009F103090DE02A4603A95046FFF71EFEB9
:10207000E7B1324641462046FFF7CCFB07464FF01A
:10208000010A0136AE421ADA324641462046FFF7CF
:10209000C1FBB842E7D10AF1010ABAF1050FDFD05E
:1020A000BAF1050FEDDD09F10109EAE7294603A8B8
:1020B000FFF734FC00EB800009EBC009D9E72B46A1
:1020C00003AA51463846FFF7FEFD00EB800009EBFE
:1020D000C00908F10108A8450ADA00270397049708
:1020E000059706970797089709973E46BA46C9E7A6
:1020F0004FF0000A27E04646B34522DD52463146FE
:102100002046FFF787FB074606F101085246414685
:102110002046FFF77FFBB842EDD10AF1010301939E
:102120001A4631462046FFF775FBB842E3D1019AC3
:1021300041462046FFF76EFBB842DCD109F10309A6
:10214000D9E70AF1010A05F1FF3BD34501DD00267D
:10215000D2E70027B8460DE00136AE4209DA3A462A
:1021600031462046FFF756FB0028F5D008F101085C
:10217000F2E70137AF4201DA0026EEE705FB05F58D
:1021800008EB88086FF0090305FB03F303EB8803F2
:10219000002BB8BF5B422B44013B93FBF5F3013BA3
:1021A000092B09D803EB830309EB4300094B984241
:1021B00009D80BB0BDE8F08F074B084A40F2C521A3
:1021C000074804F0A7F8074B044A40F2C721044827
:1021D00004F0A0F8B832270034900008909300086B
:1021E000CC8C0008489000082DE9F047D3B2072BAB
:1021F00008D88246884617460846FFF77DFD814687
:102200000026ACE0594B5A4A40F26321594804F089
:1022100081F8351985F0010505F0010532462146A2
:102220004046FFF7F7FA2B1A18BF01233246214622
:102230004046FFF715FB01344C4580F28F80324653
:1022400021465046FFF7E6FA0028F4D1072F7ED842
:1022500001A353F827F000BF1322000879220008D9
:10226000832200089B220008B5220008D122000822
:10227000FB2200082523000886F0010505F0010572
:10228000CCE73D4D85FB0435A5EBE47505EB450535
:10229000AC4214BF00250125C0E73519364B83FB3E
:1022A0000523A3EBE57303EB43039D4214BF002515
:1022B0000125B3E7304D85FB0435A5EBE47506EB4E
:1022C000D67305EB630585F0010505F00105A5E76B
:1022D00004FB06F2002A02F00103B8BF5B42194674
:1022E000254B83FB0203A3EBE27303EB4303D31AF7
:1022F000D9420CBF0125002590E704FB06F2002A15
:1023000002F00105B8BF6D421B4B83FB0213A3EB28
:10231000E27303EB4303D31A1D4485F0010505F076
:1023200001057BE7351905F0010548BF6D4204FB47
:1023300006F2114B83FB0213A3EBE27303EB43039F
:10234000D31A1D4485F0010505F0010566E70B4B26
:10235000074A40F27321074803F0DCFF01364E457F
:1023600001DA002468E7BDE8F08700BF6C90000840
:1023700068930008CC8C000856555555C48C00084D
:102380002DE9F041CBB2072B08D815464A4B53F83C
:10239000203041EAC3010C4600220EE0474B484A78
:1023A00040F20921474803F0B5FF631240F237506D
:1023B00000FB03F383EA44040132092AF5DD44EA11
:1023C000812484F4A84686F01206E41301D127463E
:1023D00011E03D4B3A4A4FF404713A4803F09AFF3A
:1023E00039463046FFF77CF803463A46082128462E
:1023F000FFF736FA0137052FF2DD06213046FFF7E9
:102400006FF80346072208212846FFF729FA07211B
:102410003046FFF765F80346082211462846FFF7C5
:102420001FFA08213046FFF75BF803460822072110
:102430002846FFF715FA09270BE039463046FFF723
:102440004FF803460822C7F10E012846FFF708FAA5
:1024500001370E2FF1DD2846FFF74EFC80460DE0D8
:1024600008F1FF373F1B21463046FFF739F8034696
:10247000082239462846FFF7F3F90134072CEFDD2F
:1024800008240DE0A8F10F07274421463046FFF746
:1024900027F803463A4608212846FFF7E1F90134B8
:1024A0000E2CEFDD0123A8F1080208212846FFF7D2
:1024B000D7F9BDE8F08100BF489300086C90000890
:1024C00058930008CC8C0008909000082DE9F04F3C
:1024D00087B08B4615461C46DDF840A09DF9443078
:1024E00001939DF84860149F8046A0B1002C1ADD2E
:1024F000544518DCBAF1280F15DC032D05D8019BD3
:10250000B3F1FF3F01DB072B16DD9A4B9A4AD3212B
:102510009A4803F0FFFE0029E8D0994B964AD12152
:10252000964803F0F7FE974B934AD221934803F065
:10253000F1FE544514DA013429462046FFF73EF9EE
:102540004FEAC009224659464046FFF761F8B0F10C
:10255000FF3FEED08145ECDB02904FF0010906E031
:102560000020387007B0BDE8F08F09F10109B9F11A
:10257000030F0DDC002EF8D05FFA89FA5146204691
:10258000FFF71CF9029BB3EBC00FEEDC5546ECE7FE
:10259000A300113303FB03F307330BD4DB105A1CE6
:1025A0000021384604F018FC002305939946039552
:1025B000A24614E00733F1E7AA68E310D05CE343D6
:1025C00003F00703184105AB3A4601210840FFF725
:1025D00089F80134EB68A342EEDC09F10109D94521
:1025E00018D24FEA091608EB091505AB3A46042143
:1025F00018F80600FFF776F86C68514618F80600E0
:10260000FEF7C0FF014605AB3A462046FFF76AF8E1
:102610000024DFE7039D5446DDF81480029B9845B3
:102620002ED129465046FFF7C9F84FEAC009B8EB4A
:10263000C00F2BDCA9EB0801042900DD042105AB48
:102640003A460020FFF74EF8059B5A4203F0070375
:1026500002F0070258BF5342C3F10803584203F087
:10266000070100F0070005AB3A4658BF4142002081
:10267000FFF738F8059B13F007080DD1EC2619E099
:10268000414B3D4AF5213D4803F044FE3F4B3A4A59
:10269000F9213A4803F03EFE3D4B374AFF213748C7
:1026A00003F038FE05AB3A4608213046FFF71AF82A
:1026B00086F0FD06059B4B45F4DB139B2A4621461D
:1026C0003846FFF779FA39462046FFF7B1F9204638
:1026D000FFF734F8011E21DB3A46C9101398FFF7C3
:1026E00029FB21463846FFF78BFB13992046FFF75D
:1026F0009FF9019BB3F1FF3F30D09DF80430072BC9
:1027000031D8019C224639461398FFF76DFD3A46B1
:1027100021462846FFF734FE012023E70731DBE797
:10272000224639464846FFF75FFD08F10108B8F137
:10273000070FE2DC4FFA88F4224639464846FFF795
:1027400053FD3A4621462846FFF71AFE3846FFF762
:1027500031FC8642E4DD06460194E1E76FF0004675
:10276000DDF84C90E3E70B4B034A40F21B110348A2
:1027700003F0D0FD08910008D4940008CC8C000828
:10278000388D0008A09000084C9100086491000862
:10279000809100086C90000808B558B10346007895
:1027A000002914DB884214DD002A14DB904208DC87
:1027B00000200DE00A4B0B4A40F2FD210A4803F0CD
:1027C000A9FD1846FFF726F838B1012000E00020E7
:1027D00008BD0020FCE70020FAE70020F8E700BF72
:1027E000A48F000820930008CC8C000808B502468E
:1027F00038B1137863B1303BDBB2092B0AD8013210
:10280000F7E7054B054A40F22D31054803F082FDFC
:10281000012008BD0020FCE7909100080C930008FF
:10282000CC8C000810B5044638B1217861B1084855
:1028300004F0DAFA50B10134F7E7064B064A4FF4D8
:102840004E71064803F066FD012010BD0020FCE734
:10285000A091000890910008F0920008CC8C00082C
:1028600008B5FEF741FEB0F1FF3F0CD0B0F5004FC8
:1028700002D20730C00808BD044B054A40F2463179
:10288000044803F047FD4FF0FF30F4E7D091000813
:10289000D0920008CC8C00082DE9F04184B0C1B181
:1028A000064615460C460846FDF7EAFC8046012020
:1028B0008DF800004146FEF717FE0746B0F1FF3FD6
:1028C0000ED0CDF80480002811DC002003900146D2
:1028D0001CE0294B294A40F27E31294803F01AFDB9
:1028E000284B264A40F28331254803F013FDC21DD0
:1028F000D2080021284604F06FFAE6E7224B1F4A6F
:1029000040F28D311E4803F005FD01342378ABB150
:10291000A3F13002D2B2092AF0D800EB800003EB19
:102920004003A3F1300001310329EED103AB2A4665
:102930000A21FEF7D7FE00200146E6E700290CDC5D
:10294000039BBB4211D1029504AB13E90F0086E84B
:102950000F00304604B0BDE8F08101EB410103AB4C
:102960002A460131FEF7BEFEEAE7084B034A4FF460
:102970006671034803F0CEFCF0910008B89200089D
:10298000CC8C0008009200081C92000834920008C9
:102990002DE9F04385B0B9B1804617460E4608468A
:1029A000FDF76EFC044602208DF800002146FEF77C
:1029B0009BFD8146B0F1FF3F0DD00194002811DC52
:1029C0000024039425461CE0294B2A4A4FF46871E1
:1029D000294803F09FFC294B264A40F2A53126489E
:1029E00003F098FCC21DD2080021384604F0F4F927
:1029F000E6E7234B1F4A40F2AF311F4803F08AFC41
:102A000001363178B9B11F4804F0EEF90028F0D052
:102A100004EB4404C4EB04141A4A831A1C44013521
:102A2000022DEDD103AB3A460B212046FEF75AFEAC
:102A300000242546E4E7002D0CDC039B4B4510D118
:102A4000029704AB13E90F0088E80F00404605B079
:102A5000BDE8F08303AB3A4606212046FEF742FE6E
:102A6000EBE7094B034A40F2BA31034803F052FC4A
:102A7000909100089C920008CC8C000800920008FD
:102A800050920008A0910008349200082DE9F04F00
:102A90008FB005460E46174698469DF968A09DF8EA
:102AA0006CB0FDF7EDFBB8B18146199B9C00113469
:102AB00004FB04F4073420D4E41001342846FFF763
:102AC00095FE002835D049460120FFF7C9FEA042F7
:102AD00015D9002038700DE004970396CDF808B0A2
:102AE000CDF804A0199B0093189B4246002108468C
:102AF000FFF7ECFC0FB0BDE8F08F0734DCE706AC65
:102B0000324629462046FFF7C7FE94E80F000EAC78
:102B100004E90F0004970396CDF808B0CDF804A09F
:102B2000199B0093189B424601210AA8FFF7CEFC8F
:102B3000E0E72846FFF776FE18B9A145C9D800237B
:102B400014E049460220FFF78BFEA042C1D806AC34
:102B5000324629462046FFF71BFF94E80F000EACD3
:102B600004E90F00D6E7EA5CF25401334B45FAD38F
:102B700004208DF828004946FEF7B6FC0D90B0F110
:102B8000FF3FA6D0CDF82C900C96C3E7704700000D
:102B900090F83D30DBB2012B2FD1022380F83D307D
:102BA0000268D36843F00103D3600368154A934277
:102BB00018D0B3F1804F15D0A2F57C42934211D0CA
:102BC00002F5806293420DD002F58062934209D0F3
:102BD00002F59A32934205D01A6842F001021A6057
:102BE000002070479A6802F00702062A07D01A6888
:102BF00042F001021A600020704701207047002057
:102C0000704700BF00000140704770477047704731
:102C100070B504460368DE681D6915F0020F10D018
:102C200016F0020F0DD06FF002021A610123037734
:102C300003689B6913F0030F5ED0FFF7E6FF0023E4
:102C4000237715F0040F12D016F0040F0FD023686D
:102C50006FF004021A610223237723689B6913F43F
:102C6000407F4FD02046FFF7D0FF0023237715F099
:102C7000080F12D016F0080F0FD023686FF008026B
:102C80001A61042323772368DB6913F0030F40D014
:102C90002046FFF7BAFF0023237715F0100F12D05C
:102CA00016F0100F0FD023686FF010021A6108237E
:102CB00023772368DB6913F4407F31D02046FFF788
:102CC000A4FF0023237715F0010F02D016F0010FA7
:102CD0002DD115F0800F02D016F0800F2FD115F0F6
:102CE000400F02D016F0400F31D115F0200F02D066
:102CF00016F0200F33D170BDFFF786FF2046FFF797
:102D000085FF9CE72046FFF77FFF2046FFF77EFF09
:102D1000ABE72046FFF778FF2046FFF777FFBAE7DB
:102D20002046FFF771FF2046FFF770FFC9E72368D1
:102D30006FF001021A612046FEF7D4F8C9E7236854
:102D40006FF080021A61204600F091F8C7E723680F
:102D50006FF040021A612046FFF759FFC5E723686C
:102D60006FF020021A61204600F080F8C3E70000EF
:102D70000368274A90420ED0B0F1804F0BD0A2F5E5
:102D80007C42904207D002F58062904203D002F567
:102D90008062904203D123F070034A6813431C4AB7
:102DA00090421AD0B0F1804F17D0A2F57C429042E9
:102DB00013D002F5806290420FD002F580629042FB
:102DC0000BD002F59A32904207D002F58062904211
:102DD00003D002F58062904203D123F44073CA68A5
:102DE000134323F080034A6913438A68C2620A6866
:102DF0008262074A904207D0026842F004020260F1
:102E000001224261036070470A690263F4E700BF70
:102E10000000014040B310B5044690F83D30F3B1D6
:102E2000022384F83D30214651F8040BFFF7A0FF40
:102E3000012384F8463084F83E3084F83F3084F82B
:102E4000403084F8413084F8423084F8433084F8CC
:102E5000443084F8453084F83D30002010BD80F8BF
:102E60003C30FFF793FEDBE7012070477047704767
:102E7000002800F0E08170B582B00446036813F0CA
:102E8000010F3BD09F4B9B6803F00C03042B2CD00D
:102E90009C4B9B6803F00C03082B21D06368B3F5AF
:102EA000803F4FD0B3F5A02F52D0964B1A6822F432
:102EB00080321A601A6822F480221A606368002B3C
:102EC00050D000F0ABFC05468E4B1B6813F4003F5E
:102ED00014D100F0A3FC401B6428F5D90320B1E114
:102EE000884B5B6813F4800FD8D0864B1B6813F4B3
:102EF000003F03D06368002B00F09F81236813F02C
:102F0000020F54D07F4B9B6813F00C0F3ED07D4BCB
:102F10009B6803F00C03082B33D0E368002B68D0C8
:102F2000794B01221A6000F079FC0546754B1B684D
:102F300013F0020F54D100F071FC401B0228F5D9A8
:102F400003207FE16F4A136843F480331360B5E7D1
:102F50006C4B1A6842F480221A601A6842F480327C
:102F60001A60ABE700F05AFC0546664B1B6813F489
:102F7000003FC3D000F052FC401B6428F5D9032069
:102F800060E1604B5B6813F4800FC6D15D4B1B683A
:102F900013F0020F03D0E368012B40F05081594A2F
:102FA000136823F0F803216943EAC103136023681F
:102FB00013F0080F42D063696BB3534B0122C3F87F
:102FC000802E00F02BFC05464E4B5B6F13F0020F7A
:102FD00034D100F023FC401B0228F5D9032031E155
:102FE000484A136823F0F803216943EAC1031360D8
:102FF000DDE7454B00221A6000F010FC0546414B0E
:103000001B6813F0020FD2D000F008FC401B02280E
:10301000F5D9032016E13C4B0022C3F8802E00F0C6
:10302000FDFB0546374B5B6F13F0020F06D000F037
:10303000F5FB401B0228F5D9032003E1236813F0B8
:10304000040F77D02F4B1B6C13F0805F33D100231C
:1030500001932C4B1A6C42F080521A641B6C03F0E3
:1030600080530193019B0125284B1B6813F4807F3B
:1030700023D0A368012B34D0052B38D0214B1A6FF5
:1030800022F001021A671A6F22F004021A67A3687D
:10309000002B3DD000F0C2FB06461A4B1B6F13F00D
:1030A000020F46D100F0BAFB801B41F288339842F0
:1030B000F3D90320C6E00025D6E7144A136843F489
:1030C0008073136000F0AAFB0646104B1B6813F4D4
:1030D000807FCED100F0A2FB801B0228F5D903200F
:1030E000B0E0084A136F43F001031367CFE7054BC5
:1030F0001A6F42F004021A671A6F42F001021A674F
:10310000C5E700BF003802400000474200700040A1
:1031100000F084FB0646524B1B6F13F0020F08D0E1
:1031200000F07CFB801B41F288339842F3D90320E6
:1031300088E0EDB9A369002B00F08380484A9268CB
:1031400002F00C02082A51D0022B17D0454B002266
:103150001A6600F063FB0446414B1B6813F0007FC6
:1031600042D000F05BFB001B0228F5D9032069E088
:103170003B4A136C23F080531364DBE7394B002286
:103180001A6600F04BFB0546354B1B6813F0007FB9
:1031900006D000F043FB401B0228F5D9032051E084
:1031A000E369226A1343626A43EA8213A26A5208FD
:1031B000013A43EA0243E26A43EA0263284A53605F
:1031C000284B01221A6600F029FB0446244B1B6899
:1031D00013F0007F06D100F021FB001B0228F5D977
:1031E00003202FE000202DE000202BE0012B2BD02E
:1031F0001B4B5B6803F48001E269914226D103F026
:103200003F02216A8A4223D1616A47F6C0721A409E
:10321000B2EB811F1ED103F44031A26A5208013A79
:10322000B1EB024F18D103F07063E26AB3EB026FA7
:1032300014D1002006E001207047012002E00120A7
:1032400000E0002002B070BD0120FBE70120F9E79B
:103250000120F7E70120F5E70120F3E70120F1E77E
:10326000003802400000474208B5334B9B6803F02A
:103270000C03042B5BD0082B5BD12F4B5A6802F058
:103280003F025B6813F4800F2CD02B4B5868C0F3BF
:1032900088104FEA401CBCEB000C6EEB0E0E4FEAA0
:1032A0008E1343EA9C634FEA8C11B1EB0C0163EB84
:1032B0000E03DB0043EA5173C90011EB000C43F12C
:1032C0000003590200234FEA4C2041EADC51FDF78C
:1032D00073FC194B5B68C3F3014301335B00B0FB24
:1032E000F3F008BD144B5868C0F388104FEA401C37
:1032F000BCEB000C6EEB0E0E4FEA8E1343EA9C63A0
:103300004FEA8C11B1EB0C0163EB0E03DB0043EAD7
:103310005173C90011EB000C43F100039902002323
:103320004FEA8C2041EA9C51FDF746FCD1E7034867
:10333000D7E70348D5E700BF0038024000127A0003
:103340000024F400002800F09B8070B50D46044670
:103350004F4B1B6803F007038B4208D2CBB24C4A99
:103360001370136803F007038B4240F08B802368CF
:1033700013F0020F17D013F0040F04D0454A9368DE
:1033800043F4E0539360236813F0080F04D0414ADC
:10339000936843F4604393603E4A936823F0F003DC
:1033A000A1680B439360236813F0010F32D0636868
:1033B000012B21D09A1E012A25D9364A126812F013
:1033C000020F61D033498A6822F0030213438B60F5
:1033D00000F024FA06462F4B9B6803F00C0362684A
:1033E000B3EB820F16D000F019FA801B41F288333C
:1033F0009842F0D9032042E0264A126812F4003FB6
:10340000E0D101203BE0234A126812F0007FD9D1BD
:10341000012034E01E4B1B6803F00703AB4207D9C1
:10342000EAB21B4B1A701B6803F00703AB422DD1A5
:10343000236813F0040F06D0164A936823F4E05370
:10344000E1680B439360236813F0080F07D0114A1B
:10345000936823F46043216943EAC1039360FFF753
:1034600003FF0C4B9B68C3F303130B4AD35CD84098
:103470000A4B18600A4B1868FDF788FE002070BDE3
:10348000012070470120FAE70120F8E70120F6E764
:10349000003C02400038024060960008080000200E
:1034A00004000020014B1868704700BF080000208E
:1034B00008B5FFF7F7FF044B9B68C3F38223034A69
:1034C000D35CD84008BD00BF0038024058960008C1
:1034D00008B5FFF7E7FF044B9B68C3F34233034A89
:1034E000D35CD84008BD00BF0038024058960008A1
:1034F0000F2303600B4B9A6802F0030242609A6844
:1035000002F0F00282609A6802F4E052C2609B68A6
:10351000DB0803F4E0530361034B1B6803F007036C
:103520000B60704700380240003C024000230F2B24
:1035300000F2D78070B582B065E085684FEA430E2F
:10354000032404FA0EF425EA0405CC6804FA0EF408
:103550002C438460446824EA02044A68C2F30012DF
:103560009A40224342605CE0DC08083450F8242092
:1035700003F00705AD004FF00F0E0EFA05FE22EA2C
:103580000E0E0A69AA4042EA0E0240F824205CE0CE
:10359000042200E0002202FA0EF22A430234514DC6
:1035A00045F82420504A94686FEA0C0224EA0C057E
:1035B0004E6816F4801F01D04CEA04054A4CA56001
:1035C000E46802EA04054E6816F4001F01D04CEAD4
:1035D0000405454CE560646802EA04054E6816F48B
:1035E000003F01D04CEA04053F4C6560246822404E
:1035F0004D6815F4803F01D04CEA04023A4C226039
:1036000001330F2B6BD801229A400C6804EA020C9C
:1036100032EA0404F4D14C6804F00304013C012CA8
:103620008BD94A6802F00302032A09D0C4685D00FE
:103630000322AA4024EA02048A68AA402243C26004
:103640004A6802F00302022A8ED004684FEA430E51
:10365000032202FA0EF224EA02044A6802F003028C
:1036600002FA0EF2224302604A6812F4403FC7D0C9
:10367000002201921D4A546C44F480445464526CFC
:1036800002F480420192019A9C08A51C154A52F846
:10369000255003F0030E4FEA8E0E0F2202FA0EF2AF
:1036A00025EA0205124A90423FF474AF02F58062A7
:1036B00090420ED002F5806290420CD002F58062FA
:1036C00090420AD002F5806290423FF461AF072237
:1036D00061E701225FE702225DE703225BE702B0B8
:1036E00070BD704700380140003C01400038024086
:1036F000000002400AB1816170470904816170478E
:10370000002807DB00F01F02400901239340024A12
:1037100042F82030704700BF00E100E0002808DBDD
:103720000901C9B200F1604000F5614080F8001362
:10373000704700F00F000901C9B2014B19547047DE
:1037400014ED00E000B500F00700C0F1070CBCF17B
:10375000040F28BF4FF0040C031D062B0FD9C31E06
:103760004FF0FF3E0EFA0CF021EA000199400EFAEC
:1037700003FE22EA0E0241EA02005DF804FB002388
:10378000EEE70000074AD36823F4E0631B041B0C38
:10379000000200F4E060034343F0BF6343F40033EE
:1037A000D360704700ED00E010B50446054BD868C3
:1037B000C0F30220FFF7C6FF01462046FFF7AEFF29
:1037C00010BD00BF00ED00E008B5FFF799FF08BD90
:1037D00008B50B4B1A6842F400721A601A6842F47A
:1037E00080621A601A6842F480721A600320FFF740
:1037F000C9FF0F20FDF7CAFCFDF7A6FC002008BD9D
:10380000003C0240034A1168034B1B780B441360D1
:10381000704700BFEC24002000000020014B186816
:10382000704700BFEC240020034AD2F8883043F4EC
:103830007003C2F88830704700ED00E000F1080323
:1038400043604FF0FF328260C36003610023036076
:10385000704700230361704743684B609A688A6031
:10386000516099600861036801330360704730B4A8
:103870000D68B5F1FF3F11D000F108031C465B68ED
:103880001A68AA42FAD963684B6099608C606160DB
:10389000086103680133036030BC70470469F2E7D4
:1038A0000369416882688A60416851605A6882424F
:1038B00006D0002202611A68013A1A60186870473F
:1038C00082685A60F5E710B5044601F0C3FCA26BAC
:1038D000E36B9A4204D0002401F0DEFC204610BDC8
:1038E0000124F9E710B5044601F0B4FCA36B23B939
:1038F000012401F0D1FC204610BD0024F9E770B589
:1039000004461546866B026C5AB903681BB1002049
:103910000136A66370BD806800F0DCFF0023A36061
:10392000F6E76DB9406803F09FFA6368226C1344B0
:103930006360A268934219D3236863602846E7E76F
:10394000C06803F091FAE368226C51429B1AE3606D
:103950002268934202D2A3680B44E360022D01D097
:103960000020D5E726B1013E0020D1E72846CFE769
:103970000020CDE70346026C6AB110B50846D9684D
:103980001144D9609C68A14201D31968D960D968F3
:1039900003F06AFA10BD704738B5054601F05AFCCD
:1039A00095F8454064B201E0013C64B2002C0ADDA8
:1039B0006B6A43B105F1240000F0E2FE0028F3D069
:1039C00000F072FFF0E7FF2385F8453001F064FC5A
:1039D00001F040FC95F8444064B201E0013C64B25F
:1039E000002C0ADD2B6943B105F1100000F0C8FE80
:1039F0000028F3D000F058FFF0E7FF2385F84430AB
:103A000001F04AFC38BD38B5E0B10D46044601F07E
:103A100021FC2368E26B216C01FB0230A0600020D6
:103A2000A0636360013A02FB0133E360FF2384F883
:103A3000443084F84530FDB9236963B901F02CFCAA
:103A4000012038BD4FF0500383F31188BFF36F8F0F
:103A5000BFF34F8FFEE704F1100000F091FE002845
:103A6000ECD04FF0E0234FF08052C3F8042DBFF3A9
:103A70004F8FBFF36F8FE1E704F11000FFF7DEFE19
:103A800004F12400FFF7DAFED8E738B51D46049CA0
:103A90000B4649B92460E063236401212046FFF707
:103AA000B2FF84F84C5038BD2260F4E740B94FF0C3
:103AB000500383F31188BFF36F8FBFF34F8FFEE77F
:103AC00010B584B01C46844653B192B189B94FF009
:103AD000500383F31188BFF36F8FBFF34F8FFEE75F
:103AE0004FF0500383F31188BFF36F8FBFF34F8FF5
:103AF000FEE76AB150230393039B502B13D04FF082
:103B0000500383F31188BFF36F8FBFF34F8FFEE72E
:103B10000029EFD04FF0500383F31188BFF36F8F6C
:103B2000BFF34F8FFEE7039B012384F846300094D8
:103B30009DF818306046FFF7A8FF204604B010BD7E
:103B4000F0B585B0019288B10F461D460446B1B16B
:103B5000022D20D1E36B012B1DD04FF0500383F3D6
:103B60001188BFF36F8FBFF34F8FFEE74FF0500305
:103B700083F31188BFF36F8FBFF34F8FFEE7036CA2
:103B8000002BE5D04FF0500383F31188BFF36F8F04
:103B9000BFF34F8FFEE700F08DFE064658B9019B3C
:103BA000002B48D04FF0500383F31188BFF36F8F81
:103BB000BFF34F8FFEE700263DE02A4639462046F8
:103BC000FFF79DFE636A7BB948B14FF0E0234FF0E9
:103BD0008052C3F8042DBFF34F8FBFF36F8F01F0F6
:103BE0005BFB012005B0F0BD04F1240000F0C8FD2E
:103BF0000028F4D04FF0E0234FF08052C3F8042D9A
:103C0000BFF34F8FBFF36F8FE9E701F045FB002053
:103C1000E8E702A800F0FAFD012619E0002384F885
:103C2000443021E0002384F8453023E02046FFF7AC
:103C3000B3FE00F083FC01F00DFBA26BE36B9A4234
:103C4000BBD3022DB9D0019B002BDED0002EE0D0DB
:103C500001F022FB00F0D0FB01F0FCFA94F84420C4
:103C600052B2B2F1FF3FD9D094F8452052B2B2F12E
:103C7000FF3FD7D001F010FB01A902A800F0D2FD50
:103C8000D8B92046FFF71FFE0028CFD0019904F1D4
:103C9000100000F041FD2046FFF77EFE00F04EFCD4
:103CA0000028C8D14FF0E0234FF08052C3F8042D14
:103CB000BFF34F8FBFF36F8FBDE72046FFF76CFE5A
:103CC00000F03CFC00208DE72DE9F84390B10F4651
:103CD00016461C460546B1B1022C20D1EB6B012BD8
:103CE0001DD04FF0500383F31188BFF36F8FBFF3E4
:103CF0004F8FFEE74FF0500383F31188BFF36F8FB0
:103D0000BFF34F8FFEE7036C002BE5D04FF050035D
:103D100083F31188BFF36F8FBFF34F8FFEE701F07E
:103D2000BFFBEFF311884FF0500383F31188BFF30B
:103D30006F8FBFF34F8FAA6BEB6B9A4206D3022CA7
:103D400004D0002088F31188BDE8F88395F84590E9
:103D50004FFA89F9AB6B224639462846FFF7CFFD6B
:103D6000B9F1FF3F06D009F101035BB285F8453098
:103D70000120E7E76B6A0BB90120E3E705F12400B6
:103D800000F0FEFC18B126B101203060DAE7012016
:103D9000D8E70120D6E7F0B585B0019290B10F4683
:103DA0000446C1B100F086FD064600BB019B002B16
:103DB0005ED04FF0500383F31188BFF36F8FBFF3D2
:103DC0004F8FFEE74FF0500383F31188BFF36F8FDF
:103DD000BFF34F8FFEE7036C002BE3D04FF050038F
:103DE00083F31188BFF36F8FBFF34F8FFEE7002679
:103DF0003EE039462046FFF7BDFD013DA56323693E
:103E000023B901F049FA012005B0F0BD04F110001A
:103E100000F0B6FC0028F4D04FF0E0234FF08052C1
:103E2000C3F8042DBFF34F8FBFF36F8FE9E701F0A5
:103E300033FA0020E8E702A800F0E8FC012621E0C0
:103E4000002384F8443029E0002384F845302BE037
:103E50002046FFF7A1FD00F071FB09E02046FFF7C7
:103E60009BFD00F06BFB2046FFF73CFD00283FD197
:103E700001F0F0F9A56B002DBBD1019B002BD6D032
:103E8000002ED8D001F008FA00F0B6FA01F0E2F9FD
:103E900094F844305BB2B3F1FF3FD1D094F8453091
:103EA0005BB2B3F1FF3FCFD001F0F6F901A902A850
:103EB00000F0B8FC0028D1D12046FFF713FD002800
:103EC000C6D0019904F1240000F026FC2046FFF73B
:103ED00063FD00F033FB0028CAD14FF0E0234FF020
:103EE0008052C3F8042DBFF34F8FBFF36F8FBFE72E
:103EF000002089E70023072B0CD8074A52F833200B
:103F00000AB10133F7E7044A42F8331002EBC30267
:103F100050607047704700BFF024002070B5044621
:103F20000D46164601F096F994F844305BB2B3F1B1
:103F3000FF3F0DD094F845305BB2B3F1FF3F0BD09B
:103F400001F0AAF9A36B5BB12046FFF725FD70BD18
:103F5000002384F84430EDE7002384F84530EFE790
:103F60003246294604F1240000F0EEFBECE70000A5
:103F7000084B1B681B6823B9074B4FF0FF321A60D0
:103F80007047044B1B68DB68DB685A68024B1A6099
:103F9000704700BFA0250020382500202DE9F047FC
:103FA00080460D4617469946089EDDF824A00A9CD7
:103FB0009200A521206B02F00FFF236B07F18042D6
:103FC000013A03EB820727F00707A5B34FF0000C77
:103FD000BCF10F0F09D815F80C3004EB0C0282F875
:103FE000343013B10CF1010CF2E7002384F84330B4
:103FF000372E00D93726E662E66400252565201DA8
:10400000FFF727FC04F11800FFF723FC2461C6F139
:104010003806A6616462656584F858504A46414690
:10402000384601F0EFF82060BAF1000F01D0CAF86D
:104030000040BDE8F087002384F83430D8E7000062
:1040400038B5002407E004EB840293000E481844BE
:10405000FFF7F4FB0134372CF5D90C4D2846FFF758
:10406000EDFB0B4C2046FFF7E9FB0A48FFF7E6FBA8
:104070000948FFF7E3FB0948FFF7E0FB084B1D6029
:10408000084B1C6038BD00BFCC250020B82500209F
:10409000A425002088250020742500205C25002010
:1040A000A02500209C25002010B5044601F0D2F880
:1040B000224A136801331360214B1B685BB1214B0B
:1040C0001B686BB91E4B1B68DA6AE36A9A4207D811
:1040D0001B4B1C6004E01A4B1C601368012B29D099
:1040E000194A1368013313606364E06A174B1B6855
:1040F000984201D9154B186000EB8000211D144B2C
:1041000003EB8000FFF7A8FB01F0C6F80D4B1B681E
:104110007BB10B4B1B68DA6AE36A9A4209D24FF013
:10412000E0234FF08052C3F8042DBFF34F8FBFF34D
:104130006F8F10BDFFF784FFD2E700BF5825002026
:104140002C2A00204C2500203C2500205025002052
:10415000CC25002010B5044690F8593063B1012BEE
:1041600011D0022B0ED04FF0500383F31188BFF310
:104170006F8FBFF34F8FFEE7006B00F0C7FF204645
:1041800000F0C4FF10BD00F0C1FFFBE70F4B1B6840
:10419000D3B110B501F05EF80D4BDB68DC68201D73
:1041A000FFF77EFB0B4A1368013B1360074A136855
:1041B000013B136001F070F82046FFF7CBFF034B83
:1041C0001B68002BE6D110BD704700BF7025002092
:1041D000742500205825002070B504460D46174B65
:1041E0001E68174B18680430FFF75AFBB4F1FF3F05
:1041F0000DD03444124B1B685C60A64210D9114BA1
:1042000018680F4B19680431FFF731FB70BD002DA2
:10421000EFD00B4B196804310B48FFF71DFBF5E796
:104220000A4B1868064B19680431FFF720FB084B4E
:104230001B68A342EAD9064B1C60E7E7542500201F
:104240002C2A00209C2500205C250020A025002091
:104250003825002008B50BE04FF0E0234FF08052E6
:10426000C3F8042DBFF34F8FBFF36F8FFCF750FFE0
:10427000FFF78CFF024B1B68012BEDD8F6E700BF60
:10428000CC25002030B587B00B9C7CB10C9DB5B11E
:104290005C250495049D5C2D1AD04FF0500383F3E8
:1042A0001188BFF36F8FBFF34F8FFEE74FF05003BE
:1042B00083F31188BFF36F8FBFF34F8FFEE74FF08B
:1042C000500383F31188BFF36F8FBFF34F8FFEE767
:1042D000049D0C9D2C63022485F85940002403940E
:1042E000029505AC01940A9C0094FFF757FE0C98C8
:1042F000FFF7DAFE059807B030BD2DE9F04385B031
:104300000746884614461E46900000F07DFE08B31E
:1043100081465C2000F078FE0546A8B1C0F83090D8
:10432000002380F85930039302900D9B01930C9B5E
:1043300000933346224641463846FFF72FFE284673
:10434000FFF7B2FE012007E0484600F0DFFE4FF025
:10435000FF3001E04FF0FF3005B0BDE8F083000012
:1043600010B588B000240594069407AA06A905A8EC
:1043700000F0CEFD059B0293069B0193009423461B
:10438000079A17491748FFF77DFF174B1860C0B110
:1043900000F054FB012815D14FF0500383F311882E
:1043A000BFF36F8FBFF34F8F104B4FF0FF321A6088
:1043B0000F4B01221A600F4B00221A6000F0E4FF3D
:1043C00003E00020B0F1FF3F01D008B010BD4FF076
:1043D000500383F31188BFF36F8FBFF34F8FFEE756
:1043E000609200085542000834250020382500203E
:1043F0004C25002054250020024A13680133136025
:10440000704700BF30250020014B1868704700BF7F
:104410005425002008B501F043F8014B186808BD89
:1044200054250020F8B53A4B1B68002B69D1394B55
:104430001D6801351D60C5B9374B1B681B6843B14A
:104440004FF0500383F31188BFF36F8FBFF34F8F8B
:10445000FEE7314A1168314B186810601960304A24
:10446000136801331360FFF783FD2E4B1B68AB42CB
:104470003DD900272C4B1B68DB6A03EB83039A00B2
:104480002A4B9B58012B00D90127294B1B68002B75
:104490003CD001273AE001271F4B1B681B6843B340
:1044A0001D4B1B68DB68DC6863689D4226D3261DB4
:1044B0003046FFF7F5F9A36A1BB104F11800FFF7C6
:1044C000EFF9E36A1B4A1268934201D9194A136053
:1044D00003EB83039A00314614481044FFF7BCF9FC
:1044E000E26A114B1B68DB6A9A42D4D2D4E70027F8
:1044F000D2E70C4B4FF0FF321A60BBE7094A13605A
:10450000B8E70D4A13680133136000273846F8BD39
:104510003025002054250020A02500209C250020C7
:1045200040250020382500202C2A0020CC25002002
:1045300044250020502500204825002038B5354B63
:104540001B6843B94FF0500383F31188BFF36F8F9B
:10455000BFF34F8FFEE700F07DFE2E4B1A68013A45
:104560001A601B68002B4FD12B4B1B680BB9002422
:104570004BE00024294B1B681BB3284BDB68DC682D
:1045800004F11800FFF78CF9251D2846FFF788F97C
:10459000E06A234B1B68984201D9214B186000EB5D
:1045A000800029461F4B03EB8000FFF755F9E26AB4
:1045B0001D4B1B68DB6A9A42DCD31C4B01221A603C
:1045C000D8E70CB1FFF7D4FC194B1C6884B9174B22
:1045D0001C68D4B14FF0E0234FF08052C3F8042D93
:1045E000BFF34F8FBFF36F8F01240EE0013C07D064
:1045F000FFF718FF0028F9D00C4B01221A60F5E7ED
:104600000B4B00221A60E2E7002400F045FE204632
:1046100038BD00BF30250020582500208825002007
:1046200050250020CC2500202C2A002044250020E5
:104630004825002010B5A8B10446104B1B6843B1B3
:104640004FF0500383F31188BFF36F8FBFF34F8F89
:10465000FEE7FFF7D1FE00212046FFF7BDFDFFF783
:104660006DFF48B94FF0E0234FF08052C3F8042D9E
:10467000BFF34F8FBFF36F8F10BD00BF30250020F9
:10468000204B1B681BB1204B01221A6070471E4B48
:1046900000221A601D4B1B6803EB83018A001C4932
:1046A0008A585AB90BB1013BF6E74FF0500383F338
:1046B0001188BFF36F8FBFF34F8FFEE7084603EB00
:1046C00083018A00024451684968516003EB830CFE
:1046D0004FEA8C020832024491420BD003EB830272
:1046E00091000B4A0A445268D1680A4A1160074A8D
:1046F00013607047486862469100054A0A4450605A
:10470000ECE700BF30250020442500205025002084
:10471000CC2500202C2A002058B110B50C46094A9F
:1047200011681831FFF7A3F801212046FFF754FD67
:1047300010BD4FF0500383F31188BFF36F8FBFF3A9
:104740004F8FFEE72C2A002038B570B10D46144675
:104750000A4A11681831FFF77FF80CB14FF0FF35A6
:1047600021462846FFF738FD38BD4FF0500383F34C
:104770001188BFF36F8FBFF34F8FFEE72C2A002005
:1047800038B5C368DC6824B304F118052846FFF780
:1047900087F8184B1B682BBB251D2846FFF780F8B0
:1047A000E06A154B1B68984201D9134B186000EB67
:1047B00080002946114B03EB8000FFF74DF8E26AB9
:1047C0000F4B1B68DB6A9A4211D901200D4B186010
:1047D00038BD4FF0500383F31188BFF36F8FBFF3E1
:1047E0004F8FFEE729460848FFF736F8E7E7002035
:1047F000EEE700BF3025002050250020CC2500200A
:104800002C2A00204425002088250020034B1B680B
:104810000360034B1B684360704700BF40250020C6
:1048200054250020F8B5C8B10C460546F9B100F092
:1048300011FD1B4B19686B68C81A2268B2F1FF3F63
:1048400026D0184E36682F68B74201D08B4224D943
:10485000824215D80023236001241AE04FF0500350
:1048600083F31188BFF36F8FBFF34F8FFEE74FF0D5
:10487000500383F31188BFF36F8FBFF34F8FFEE7B1
:104880005B1A134423602846FFF7C0FF002400E0B2
:10489000002400F001FD2046F8BD0124F9E700BF27
:1048A0005425002040250020014B01221A6070474A
:1048B00044250020054B1B6833B1054B1B680BB129
:1048C0000020704702207047012070474C250020CF
:1048D0003025002000283BD038B504461E4B1B680D
:1048E000834208D04FF0500383F31188BFF36F8FDA
:1048F000BFF34F8FFEE7036D43B94FF0500383F3CF
:104900001188BFF36F8FBFF34F8FFEE7013B036545
:10491000C16AC26C91421DD00BB1002038BD051D8B
:104920002846FEF7BDFFE06CE062C0F13803A361EA
:104930000A4B1B68984201D9084B186000EB8000B5
:104940002946074B03EB8000FEF786FF0120E5E7D1
:10495000002070470020E1E72C2A0020502500208D
:10496000CC250020064B1A6813682BB9012303607D
:1049700023B9D368186870470023F8E70020704710
:10498000302B002008B54160006191420CD8D21A4A
:1049900083699A4201D3012008BD011D094B1868A3
:1049A000FEF765FF0020F7E79A4201D2994206D24E
:1049B000011D054B1868FEF75AFF0020ECE70120A7
:1049C000EAE700BF2C2B0020302B002030B583B04D
:1049D00000F040FC114B1B681BB100F05DFC03B004
:1049E00030BD0F4D2846FEF729FF0E4C2046FEF73E
:1049F00025FF0D4B1D600D4B1C60002300930C4BDD
:104A00000C4A10210A20FFF751F8044B18600028C7
:104A1000E3D00949FFF76EFADFE700BF282B00203B
:104A2000482B0020342B0020302B00202C2B002082
:104A3000302A0020802A00206892000810B588B033
:104A4000FFF7C4FF124B1B68CBB1002405940694FA
:104A500007AA06A905A800F067FA059B0293069B22
:104A60000193022300932346079A0A490A48FFF755
:104A700009FC0A4B186010B1012008B010BD4FF0BE
:104A8000500383F31188BFF36F8FBFF34F8FFEE79F
:104A9000282B002070920008A14D0008242B002034
:104AA000B8B19C4603461848006858B300B585B0B5
:104AB00000910192029305291CDCFFF7FBFE0228FE
:104AC00010D000231A4669460F480068FFF738F8EF
:104AD00015E04FF0500383F31188BFF36F8FBFF3DE
:104AE0004F8FFEE70023069A694607480068FFF7E4
:104AF00027F804E0002362466946FFF7E5F805B0B1
:104B00005DF804FB00207047282B002070B582B0B0
:104B10001B4B1B681A6862B3DB681E68DC68251DC6
:104B20002846FEF7BDFE236A2046984794F82830B1
:104B300013F0040FECD0A36933449E4207D26360A4
:104B4000246129460E4B1868FEF791FEE0E700212C
:104B500000910B4632462046FFF7A2FF0028D7D12E
:104B60004FF0500383F31188BFF36F8FBFF34F8F64
:104B7000FEE7044A106802490860136002B070BD85
:104B8000302B00202C2B002038B50546FFF73CFCCD
:104B90000446074B1B68834205D800232B60044B57
:104BA0001C60204638BDFFF7B1FF01232B60F6E7FC
:104BB000202B002070B582B006460D4617490968C3
:104BC000C968CC68201DFEF76BFE94F828C01CF065
:104BD000040F08D12CF0010C84F828C0236A204669
:104BE000984702B070BDA16933462A463144204639
:104BF000FFF7C8FE0028F1D0002100910B46324695
:104C00002046FFF74DFF0028E8D14FF0500383F313
:104C10001188BFF36F8FBFF34F8FFEE7302B00205B
:104C200070B582B006460C46FFF7E6FB01A8FFF719
:104C3000ABFF019B33BB0546E4B9B04213D2224619
:104C4000711B124B1868FFF769F9FFF777FCD8B9A9
:104C50004FF0E0234FF08052C3F8042DBFF34F8F85
:104C6000BFF36F8F10E0FFF769FC29463046FFF76E
:104C7000A1FF09E0064A126812680AB90124DEE7BA
:104C80001C46DCE7FFF75AFC02B070BD282B002061
:104C90002C2B002010B588B002E0049B002B0FDA0B
:104CA000002204A93D4B1868FFF775F8002873D05F
:104CB000049B002BF1DA07990698059B9847ECE7CF
:104CC000069C636913B1201DFEF7EAFD03A8FFF7F8
:104CD0005BFF049B092BE3D8DFE803F005050530F3
:104CE00037500505303794F8283043F0010384F835
:104CF0002830059BA169024619442046FFF742FE71
:104D00000028CDD0236A2046984794F8283013F025
:104D1000040FC5D0A269002100910B4605980244FA
:104D20002046FFF7BDFE0028BAD14FF0500383F3B1
:104D30001188BFF36F8FBFF34F8FFEE794F82830D1
:104D400023F0010384F82830AAE794F8283043F0D0
:104D5000010384F828300599A16131B10346024668
:104D600001442046FFF70EFE9AE74FF0500383F30D
:104D70001188BFF36F8FBFF34F8FFEE794F8283091
:104D800013F0020F04D023F0010384F8283087E7E2
:104D9000204600F0BBF983E708B010BD282B0020A7
:104DA00000B583B001A8FFF7DDFD0199FFF738FFDB
:104DB000FFF770FFF6E708B54FF0E0231B69FFF738
:104DC00079FD012800D108BD00F0B4FAFBE700002E
:104DD000EFF305832BB9064B186828B901221A6036
:104DE00070476FF0050070474FF0FF30704700BF0D
:104DF00014320020EFF3058373B90A4B1B68012BB3
:104E00000DD110B50024084BDC77064B02221A6046
:104E1000FFF7A6FA204610BD6FF0050070474FF06F
:104E2000FF3070471432002000ED00E008B5EFF3CA
:104E3000058313B1FFF7EEFA08BDFFF7E5FAFBE7CC
:104E4000F0B587B000240594EFF3058404BBF8B1F6
:104E5000002A34D0156893692BB11E46013B372BCD
:104E600002D9002015E01826536813F0010F3FD136
:104E7000546984B14FEA940C93682BB1D7685B2FC7
:104E800002D9176907B184B943B14FF0FF330BB3AF
:104E9000059807B0F0BD4FF0800CEDE7D368A3B9DB
:104EA0001369ABB14FF0FF33F1E70293019700961E
:104EB0000B4662462946FFF7E5F90590E8E71546F7
:104EC000002318264FF0800CE1E74FF0FF33DEE7B8
:104ED0000023DCE705AB019300960B461FFA8CF22A
:104EE0002946FFF70AFA0128D2D000230593CFE71D
:104EF0000020CEE708B5EFF3058333B908B90020E9
:104F000008BDFFF797FB0020FAE76FF00500F7E711
:104F1000034B0360034B0B6080231360704700BF9B
:104F2000B8310020B82F0020034B0360034B0B6007
:104F30004FF48073136070475C2F00205C2B0020BF
:104F4000124A12F0070F1ED0D11D21F00701C1F542
:104F5000705313440A460E48026000214160134416
:104F6000083B23F007030B48036059601960991A46
:104F700051601360084B1960084B1960084B4FF0E3
:104F800000421A6070474FF47053E4E73832002053
:104F9000303200202C320020243200202832002021
:104FA00018320020164B1A461B688342FBD3516807
:104FB00002EB010C844509D0416800EB010C63450C
:104FC00009D00360904219D01060704740680144D6
:104FD00051601046F0E710B40A4C2468A3420BD08D
:104FE0005B681944416013681B680360904200D0FD
:104FF00010605DF8044B70470460F7E7704700BF2E
:10500000303200202C32002038B50446FFF7F4F986
:10501000384B1B68B3B1384B1B681C4250D1002C75
:1050200050D004F1080214F0070F02D022F007025A
:105030000832002A55D0314B1B68934253D3304974
:105040000C6804E0FFF77CFFE5E721461C46636837
:10505000934202D22368002BF7D1264B1B68A34250
:1050600043D00D68083523680B6063689B1A102BCA
:1050700010D9A01810F0070F08D04FF0500383F399
:105080001188BFF36F8FBFF34F8FFEE743606260FD
:10509000FFF788FF626819490B689B1A0B60194972
:1050A00009688B4201D217490B60134B1B681343ED
:1050B000636000232360144A13680133136002E025
:1050C000002500E00025FFF739FA15F0070F0ED094
:1050D0004FF0500383F31188BFF36F8FBFF34F8FEF
:1050E000FEE70025EFE70025EDE70025EBE7284682
:1050F00038BD00BF2C32002018320020283200209A
:10510000303200202432002020320020002834D009
:1051100038B50446A0F1080550F8043C174A126857
:10512000134208D14FF0500383F31188BFF36F8F00
:10513000BFF34F8FFEE750F8081C41B14FF050030A
:1051400083F31188BFF36F8FBFF34F8FFEE723EA1E
:10515000020340F8043CFFF74FF954F8041C084AD6
:1051600013680B4413602846FFF71CFF054A1368B9
:1051700001331360FFF7E2F938BD704718320020A1
:10518000283200201C32002082B0002301930D4BF6
:105190001B68B3F1FF3F08D04FF0500383F3118831
:1051A000BFF36F8FBFF34F8FFEE74FF0500383F3D2
:1051B0001188BFF36F8FBFF34F8F019B002BFCD083
:1051C00002B070470C00002008480068006880F3B7
:1051D00008884FF0000080F3148862B661B6BFF310
:1051E0004F8FBFF36F8F00DF00BF000008ED00E0BE
:1051F000DFF80C00016841F47001016070470000A5
:1052000088ED00E04FF0807340F8043C21F001018C
:1052100040F8081C054B40F80C3C40F8202C6FF07F
:10522000020340F8243C4438704700BF895100080D
:10523000074B19680868B0E8F04F80F30988BFF39E
:105240006F8F4FF0000080F311887047AFF300803C
:105250002C2A00204FF0500383F31188BFF36F8F87
:10526000BFF34F8F0B4A136801331360012B00D03B
:1052700070474FF0E023D3F8043D13F0FF0FF7D051
:105280004FF0500383F31188BFF36F8FBFF34F8F3D
:10529000FEE700BF0C000020094B1B6843B94FF02C
:1052A000500383F31188BFF36F8FBFF34F8FFEE777
:1052B000013B034A13600BB983F31188704700BFA9
:1052C0000C000020000000000000000000000000B2
:1052D000EFF30980BFF36F8F154B1A681EF0100FA4
:1052E00008BF20ED108A20E9F04F10602DE9090079
:1052F0004FF0500080F31188BFF34F8FBFF36F8FD3
:10530000FFF7BEF94FF0000080F3118809BC19685F
:105310000868B0E8F04F1EF0100F08BFB0EC108A1C
:1053200080F30988BFF36F8F704700BFAFF3008031
:105330002C2A002008B54FF0500383F31188BFF3E7
:105340006F8FBFF34F8FFFF76DF828B14FF0E02359
:105350004FF08052C3F8042D002383F3118808BD59
:105360004FF0E022002313619361054B1B68054950
:10537000A1FB03139B09013B536107231361704792
:1053800008000020D34D62104FF0E023D3F8002D29
:105390003D4B9A421CD04FF0E023D3F8002D3B4BFD
:1053A0009A421ED030B583B0394B1A78D2B20192EE
:1053B000FF221A701B78DBB28DF803309DF80330A2
:1053C00003F05003334A1370334B07221A601BE07B
:1053D0004FF0500383F31188BFF36F8FBFF34F8FEC
:1053E000FEE74FF0500383F31188BFF36F8FBFF3D5
:1053F0004F8FFEE7284A1368013B13609DF8033086
:105400005B00DBB28DF803309DF8033013F0800FA2
:10541000F0D1214B1B68032B08D04FF0500383F3CE
:105420001188BFF36F8FBFF34F8FFEE71B021A4A3D
:10543000136003F4E0631360019BDBB2144A137042
:105440004FF0E024D4F8203D43F47003C4F8203D2D
:10545000D4F8203D43F07043C4F8203DFFF780FFAF
:1054600000250E4B1D60FFF7C3FED4F8343F43F018
:105470004043C4F8343FFFF7A7FEFFF701F9FFF7F9
:1054800083FE284603B030BD71C20F4170C20F4188
:1054900000E400E03C6E0020386E00200C0000208C
:1054A000EFF305830F2B0FD9114A9B5CDBB2114A36
:1054B00012789A4208D94FF0500383F31188BFF352
:1054C0006F8FBFF34F8FFEE74FF0E023D3F80C3D13
:1054D00003F4E063084A1268934208D94FF050037E
:1054E00083F31188BFF36F8FBFF34F8FFEE77047D1
:1054F000F0E300E03C6E0020386E002010B503465B
:105500000C4A0D490D48006840B10C48006803443E
:10551000521A934206D8094A136010BD0748084C36
:105520000460F2E701F06EFC0C2303604FF0FF30E3
:10553000F3E700BF0000022000040000406E0020DE
:10554000307000200120704708B501F05BFC162385
:1055500003604FF0FF3008BD08B54FF0FF31FFF793
:10556000F3FFFEE770B50C461646002506E0AFF3E4
:105570000080214601F8010B01350C46B542F6DBEF
:10558000304670BD70B50C461646002504E014F890
:10559000010BAFF300800135B542F8DB304670BD3A
:1055A0004FF0FF3070474FF400534B6000207047BE
:1055B000012070470020704708B50B480B4B036073
:1055C0000B4B436000238360C3604FF48042026151
:1055D00043618361C361036200F044FA00B908BD0E
:1055E000FBF78CFCFBE700BF446E0020005400403A
:1055F000A086010030B589B000230393049305937E
:10560000069307930268144B9A4201D009B030BD4B
:1056100000250195114C236B43F002032363236B98
:1056200003F002030193019B4FF440730393122391
:105630000493032306930423079303A90848FDF763
:1056400075FF0295236C43F400132364236C03F469
:1056500000130293029BD9E7005400400038024037
:105660000004024003685A6912F4806F01D10020DF
:1056700070476FF480625A6100230363202280F830
:105680003D2080F83E30026C42F00402026480F853
:105690003C30012070472DE9F04106460C46174684
:1056A00098463BE0FEF7BAF8069BC01A404502D880
:1056B000B8F1000F32D1012D18D033689B6924EA6C
:1056C00003039BB2B3FA83F35B099F4226D1002305
:1056D0003363202286F83D2086F83E30326C42F05B
:1056E0002002326486F83C30012027E033685B6991
:1056F00024EA03039BB2B3FA83F35B09E5E733685B
:105700005B6924EA030C1FFA8CFCBCFA8CFC4FEAA0
:105710005C1C674511D1B8F1FF3FC3D1C4F3074505
:10572000012DECD033689B6924EA030C1FFA8CFC32
:10573000BCFA8CFC4FEA5C1CEBE70020BDE8F08172
:105740002DE9F84305460E469046994653E01A68FF
:1057500042F400721A602B686FF480625A61002371
:105760002B63202285F83D2085F83E302A6C42F0DC
:1057700004022A6485F83C3001204AE0FEF74EF826
:10578000A0EB0900404502D8B8F1000F33D1012F3A
:1057900017D02B689B6926EA03039BB2003B18BF16
:1057A000012343B300232B63202285F83D2085F895
:1057B0003E302A6C42F020022A6485F83C300120F9
:1057C00027E02B685B6926EA03039BB2003B18BF06
:1057D0000123E6E72B689C6926EA0404A4B2003C96
:1057E00018BF0124A4B12B685A6912F4806FAED19E
:1057F000B8F1FF3FC2D1C6F30747012FEAD12B68AA
:105800005C6926EA0404A4B2003C18BF0124E9E75D
:105810000020BDE8F8830000F0B583B004460D46D3
:1058200016461F46C36A082B0DD0012B0BD013F56B
:10583000803F08D0036B122B0AD10268136843F42F
:105840008073136004E02268136843F4807313606C
:105850000097334600224FF001112046FFF71BFF4F
:1058600080B92369B3F5804F16D1236805F0FE0592
:105870001D613B46324613492046FFF761FFF8B9E8
:1058800003B0F0BD23681B6813F4807F02D04FF48F
:10589000007323640320F3E7EB11226803F006038F
:1058A00043F0F00313613B46324607492046FFF7B9
:1058B00047FF18B92368EDB21D61DAE70120DFE781
:1058C0000120DDE7020001000800010070B5044678
:1058D0000D46164623685B6913F0800F21D12046E0
:1058E000FFF7C0FEF8B9B5F1FF3FF3D0FDF796FF23
:1058F000801BA84201D8002DECD123685B6913F00E
:10590000800FE7D100232363202284F83D2084F810
:105910003E30226C42F02002226484F83C300120A8
:1059200000E0002070BD0120FCE700002DE9F043FD
:1059300085B004460D4691461F46DDF830800D9E29
:105940000368196841F4807119600096434600228B
:105950004FF00111FFF79FFE60B9236805F0FE05C7
:105960001D613346424626492046FFF7E9FE68B1ED
:10597000012008E023681B6813F4807F02D04FF4F5
:1059800000732364032005B0BDE8F0830023039374
:1059900023685A6903929B690393039B32464146ED
:1059A0002046FFF793FF30B9012F0FD123685FFA2C
:1059B00089F61E61E7E7236C042B01D00120E2E7A2
:1059C0002268136843F400731360F7E723684FEA13
:1059D00019221A61324641462046FFF777FF20B967
:1059E00023685FFA89F61E61CDE7236C042B01D092
:1059F0000120C8E72268136843F400731360F7E7D7
:105A00000200010070B504460D46164623685B6926
:105A100013F0040F21D12046FFF724FEF8B9B5F1A9
:105A2000FF3FF3D0FDF7FAFE801BA84201D8002DFE
:105A3000ECD123685B6913F0040FE7D100232363E3
:105A4000202284F83D2084F83E30226C42F020026F
:105A5000226484F83C30012000E0002070BD012069
:105A6000FCE70000002800F0CC8070B5044690F8F8
:105A70003D30002B77D0242384F83D302268136812
:105A800023F0010313602268136843F4004313609A
:105A90002268136823F400431360FDF709FD626870
:105AA0005A4B9A4264D85A4B98428CBF0023012328
:105AB000002B40F0A8805749A1FB00318B0C2568D2
:105AC0006A6822F03F0242EA91426A6021680A6AEB
:105AD00022F03F0266684D4DAE424FD8013313436A
