:020000040800F2
:1000000000000220814E0008CD110008CF11000829
:10001000D1110008D3110008D5110008000000001C
:10002000000000000000000000000000F13D00089A
:10003000D711000800000000913E00084339000875
:10004000D14E0008D14E0008D14E0008D14E000814
:10005000D14E0008D14E0008D14E0008D14E000804
:10006000D14E0008D14E0008D14E0008D14E0008F4
:10007000D14E0008D14E0008D14E0008D14E0008E4
:10008000D14E0008D14E0008D14E000800000000FB
:10009000000000000000000000000000D14E000839
:1000A000D14E0008D9110008D14E0008D14E0008E9
:1000B000D14E0008D14E0008D14E0008D14E0008A4
:1000C000D14E0008D14E0008D14E0008D14E000894
:1000D000D14E0008D14E0008D14E000800000000AB
:1000E000D14E0008D14E0008D14E0008000000009B
:1000F000000000000000000000000000D14E0008D9
:1001000000000000D14E0008D14E0008D14E00087A
:1001100000000000000000000000000000000000DF
:10012000D14E0008D14E0008D14E0008D14E000833
:10013000D14E000800000000000000000000000098
:10014000000000000000000000000000D14E000888
:10015000D14E0008D14E0008D14E0008D14E000803
:10016000D14E0008D14E0008000000000000000041
:10017000000000000000000000000000000000007F
:1001800000000000D14E0008000000000000000048
:08019000D14E0008D14E000819
:1001A00010B5054C237833B9044B13B10448AFF3B1
:1001B00000800123237010BDD80100200000000042
:1001C000687B000808B5034B1BB103490348AFF334
:1001D000008008BD00000000DC010020687B0008F2
:1001E00001F0FF01102A2BDB10F0070F08D010F8E8
:1001F000013B013A8B422DD010F0070F42B3F6D1EC
:10020000F0B441EA012141EA014122F007047FF004
:1002100000070023F0E80256083C85EA010586EA5B
:10022000010685FA47F5A3FA87F586FA47F6A5FA97
:1002300087F68EB9EED1F0BC01F0FF0102F00702A3
:1002400032B110F8013B013A83EA010313B1F8D14E
:100250000020704701387047002D06BF354603382F
:10026000073815F0010F07D1013015F4807F02BF68
:10027000013015F4C03F0130F0BC0138704700BFB9
:10028000034613F8012B002AFBD1181A01387047D6
:1002900081F0004102E000BF83F0004330B54FEA37
:1002A00041044FEA430594EA050F08BF90EA020FA4
:1002B0001FBF54EA000C55EA020C7FEA645C7FEA37
:1002C000655C00F0E2804FEA5454D4EB5555B8BF5A
:1002D0006D420CDD2C4480EA020281EA030382EACB
:1002E000000083EA010180EA020281EA0303362D5D
:1002F00088BF30BD11F0004F4FEA01314FF4801C30
:100300004CEA113102D0404261EB410113F0004F41
:100310004FEA03334CEA133302D0524263EB4303F8
:1003200094EA050F00F0A780A4F10104D5F1200E96
:100330000DDB02FA0EFC22FA05F2801841F10001F1
:1003400003FA0EF2801843FA05F359410EE0A5F1C5
:1003500020050EF1200E012A03FA0EFC28BF4CF0F6
:10036000020C43FA05F3C01851EBE37101F00045AC
:1003700007D54FF0000EDCF1000C7EEB00006EEBB9
:100380000101B1F5801F1BD3B1F5001F0CD3490843
:100390005FEA30004FEA3C0C04F101044FEA44529A
:1003A00012F5800F80F09A80BCF1004F08BF5FEA21
:1003B000500C50F1000041EB045141EA050130BD01
:1003C0005FEA4C0C404141EB0101013C28BFB1F513
:1003D000801FE9D291F0000F04BF01460020B1FA5E
:1003E00081F308BF2033A3F10B03B3F120020CDA31
:1003F0000C3208DD02F1140CC2F10C0201FA0CF00F
:1004000021FA02F10CE002F11402D8BFC2F1200C73
:1004100001FA02F120FA0CFCDCBF41EA0C01904029
:10042000E41AA2BF01EB0451294330BD6FEA040472
:100430001F3C1CDA0C340EDC04F11404C4F120025D
:1004400020FA04F001FA02F340EA030021FA04F36F
:1004500045EA030130BDC4F10C04C4F1200220FAC6
:1004600002F001FA04F340EA0300294630BD21FA04
:1004700004F0294630BD94F0000F83F4801306BFCA
:1004800081F480110134013D4EE77FEA645C18BFBE
:100490007FEA655C29D094EA050F08BF90EA020F55
:1004A00005D054EA000C04BF1946104630BD91EA4D
:1004B000030F1EBF0021002030BD5FEA545C05D150
:1004C0004000494128BF41F0004130BD14F580048F
:1004D0003CBF01F5801130BD01F0004545F0FE4103
:1004E00041F470014FF0000030BD7FEA645C1ABF38
:1004F000194610467FEA655C1CBF0B46024650EA6F
:10050000013406BF52EA033591EA030F41F400219A
:1005100030BD00BF90F0000F04BF0021704730B520
:100520004FF4806404F132044FF000054FF00001F5
:1005300050E700BF90F0000F04BF0021704730B5B6
:100540004FF4806404F1320410F0004548BF40428B
:100550004FF000013EE700BF42004FEAE2014FEAE0
:1005600031014FEA02701FBF12F07F4393F07F4FBB
:1005700081F06051704732F07F4208BF704793F0BE
:100580007F4F04BF41F40021704730B54FF46074D1
:1005900001F0004521F000411CE700BF50EA0102D4
:1005A00008BF704730B54FF000050AE050EA01027D
:1005B00008BF704730B511F0004502D5404261EBED
:1005C00041014FF4806404F132045FEA915C3FF42E
:1005D000D8AE4FF003025FEADC0C18BF03325FEACB
:1005E000DC0C18BF033202EBDC02C2F1200300FA7C
:1005F00003FC20FA02F001FA03FE40EA0E0021FAA1
:1006000002F11444BDE600BF70B54FF0FF0C4CF48E
:10061000E06C1CEA11541DBF1CEA135594EA0C0F40
:1006200095EA0C0F00F0DEF82C4481EA030621EA7B
:100630004C5123EA4C5350EA013518BF52EA0335B6
:1006400041F4801143F4801338D0A0FB02CE4FF068
:100650000005E1FB02E506F00042E0FB03E54FF098
:100660000006E1FB03569CF0000F18BF4EF0010E90
:10067000A4F1FF04B6F5007F64F5407404D25FEA8C
:100680004E0E6D4146EB060642EAC62141EA55513F
:100690004FEAC52040EA5E504FEACE2EB4F1FD0C81
:1006A00088BFBCF5E06F1ED8BEF1004F08BF5FEAFF
:1006B000500E50F1000041EB045170BD06F00046B1
:1006C00046EA010140EA020081EA0301B4EB5C045E
:1006D000C2BFD4EB0C0541EA045170BD41F4801156
:1006E0004FF0000E013C00F3AB8014F1360FDEBF7B
:1006F000002001F0004170BDC4F10004203C35DA57
:100700000C341BDC04F11404C4F1200500FA05F3D9
:1007100020FA04F001FA05F240EA020001F000427A
:1007200021F0004110EBD37021FA04F642EB0601F0
:100730005EEA430E08BF20EAD37070BDC4F10C041A
:10074000C4F1200500FA04F320FA05F001FA04F2DE
:1007500040EA020001F0004110EBD37041F10001CA
:100760005EEA430E08BF20EAD37070BDC4F12005D5
:1007700000FA05F24EEA020E20FA04F301FA05F23D
:1007800043EA020321FA04F001F0004121FA04F2E5
:1007900020EA020000EBD3705EEA430E08BF20EAB5
:1007A000D37070BD94F0000F0FD101F000464000EF
:1007B00041EB010111F4801F08BF013CF7D041EA71
:1007C000060195F0000F18BF704703F00046520075
:1007D00043EB030313F4801F08BF013DF7D043EA46
:1007E0000603704794EA0C0F0CEA135518BF95EAFC
:1007F0000C0F0CD050EA410618BF52EA4306D1D183
:1008000081EA030101F000414FF0000070BD50EAA1
:10081000410606BF1046194652EA430619D094EA2B
:100820000C0F02D150EA013613D195EA0C0F05D115
:1008300052EA03361CBF104619460AD181EA030169
:1008400001F0004141F0FE4141F470014FF0000021
:1008500070BD41F0FE4141F4780170BD70B54FF0BC
:10086000FF0C4CF4E06C1CEA11541DBF1CEA13553C
:1008700094EA0C0F95EA0C0F00F0A7F8A4EB05041E
:1008800081EA030E52EA03354FEA013100F0888015
:100890004FEA03334FF0805545EA131343EA1263DE
:1008A0004FEA022245EA111545EA10654FEA002693
:1008B0000EF000419D4208BF964244F1FD0404F54C
:1008C000407402D25B084FEA3202B61A65EB0305A8
:1008D0005B084FEA32024FF480104FF4002CB6EB65
:1008E000020E75EB030E22BFB61A754640EA0C00E5
:1008F0005B084FEA3202B6EB020E75EB030E22BF25
:10090000B61A754640EA5C005B084FEA3202B6EB65
:10091000020E75EB030E22BFB61A754640EA9C0024
:100920005B084FEA3202B6EB020E75EB030E22BFF4
:10093000B61A754640EADC0055EA060E18D04FEAB2
:10094000051545EA16754FEA06164FEAC30343EA52
:1009500052734FEAC2025FEA1C1CC0D111F4801F1F
:100960000BD141EA00014FF000004FF0004CB6E718
:1009700011F4801F04BF01430020B4F1FD0C88BFB7
:10098000BCF5E06F3FF6AFAEB5EB030C04BFB6EBC2
:10099000020C5FEA500C50F1000041EB045170BDB5
:1009A0000EF0004E4EEA113114EB5C04C2BFD4EBE2
:1009B0000C0541EA045170BD41F480114FF0000E66
:1009C000013C90E645EA060E8DE60CEA135594EAE2
:1009D0000C0F08BF95EA0C0F3FF43BAF94EA0C0FE5
:1009E0000AD150EA01347FF434AF95EA0C0F7FF45A
:1009F00025AF104619462CE795EA0C0F06D152EAAE
:100A000003353FF4FDAE1046194622E750EA410691
:100A100018BF52EA43067FF4C5AE50EA41047FF4A2
:100A20000DAF52EA43057FF4EBAE12E74FF0FF3C07
:100A300006E000BF4FF0010C02E000BF4FF0010CD8
:100A40004DF804CD4FEA410C7FEA6C5C4FEA430C51
:100A500018BF7FEA6C5C1BD001B050EA410C0CBFA0
:100A600052EA430C91EA030F02BF90EA020F002002
:100A7000704710F1000F91EA030F58BF994208BF69
:100A800090422CBFD8176FEAE37040F00100704726
:100A90004FEA410C7FEA6C5C02D150EA013C07D17D
:100AA0004FEA430C7FEA6C5CD6D152EA033CD3D0C8
:100AB0005DF8040B704700BF8446104662468C46C2
:100AC0001946634600E000BF01B5FFF7B7FF0028F5
:100AD00048BF10F1000F01BD4DF808EDFFF7F4FF1E
:100AE0000CBF012000205DF808FB00BF4DF808EDA9
:100AF000FFF7EAFF34BF012000205DF808FB00BFCC
:100B00004DF808EDFFF7E0FF94BF012000205DF8ED
:100B100008FB00BF4DF808EDFFF7CEFF94BF0120A2
:100B200000205DF808FB00BF4DF808EDFFF7C4FF9B
:100B300034BF012000205DF808FB00BF4FEA410CE4
:100B40007FEA6C5C02D150EA013C0AD14FEA430CC7
:100B50007FEA6C5C02D152EA033C02D14FF0000004
:100B600070474FF0010070474FEA410212F5001242
:100B700015D211D56FF47873B3EB625212D94FEAE4
:100B8000C12343F0004343EA505311F0004F23FACE
:100B900002F018BF404270474FF00000704750EA23
:100BA000013005D111F0004008BF6FF000407047E0
:100BB0004FF00000704700BF53B94AB9002908BF81
:100BC00000281CBF4FF0FF314FF0FF3000F088B914
:100BD000ADF1080C6DE904CE00F006F8DDF804E094
:100BE000DDE9022304B070472DE9F047089D8E46E9
:100BF00004468846002B4AD18A42174662D9B2FA87
:100C000082F64EB1C6F1200301FA06F820FA03F38A
:100C1000B74043EA0808B4404FEA174E1FFA87FC72
:100C2000B8FBFEF1230C0EFB118843EA084301FBDD
:100C30000CF29A4209D9FB1801F1FF3080F0EA80EA
:100C40009A4240F2E78002393B449A1AA3B2B2FBBF
:100C5000FEF00EFB102243EA024300FB0CFC9C4515
:100C600009D9FB1800F1FF3280F0D6809C4540F294
:100C7000D3803B44023840EA0140A3EB0C0300213F
:100C80001DB1F3400022C5E90032BDE8F0878B4278
:100C900005D90DB1C5E9000100210846F5E7B3FA11
:100CA00083F1002946D1734502D3824200F20581C7
:100CB000841A6EEB030201209046002DE5D0C5E9B1
:100CC0000048E2E7002A00F09080B2FA82F6002E97
:100CD00040F0A4808A1A030C4FEA174E80B2BCB2CF
:100CE0000121B2FBFEFC0EFB1C2243EA024304FB83
:100CF0000CF29A4207D9FB180CF1FF3802D29A4243
:100D000000F2E080C4469B1AB3FBFEF20EFB1233E6
:100D100040EA034302FB04F49C4207D9FB1802F1AA
:100D2000FF3002D29C4200F2CA8002461B1B42EAFC
:100D30000C40A5E7C1F120068B4022FA06F71F43BD
:100D40000EFA01F420FA06F32EFA06FE4FEA1749CE
:100D5000234300FA01F81FFA87FCBEFBF9F01C0CD4
:100D600009FB10EE44EA0E4400FB0CFEA64502FA15
:100D700001F209D93C1900F1FF3A80F09C80A645A8
:100D800040F2998002383C44A4EB0E041FFA83FE23
:100D9000B4FBF9F309FB13444EEA044403FB0CFCD7
:100DA000A44508D93C1903F1FF3E80F08280A44598
:100DB0007FD9023B3C4443EA0040A4EB0C04A0FB77
:100DC00002EC64457346E14662D35FD05DB1B8EB97
:100DD000030264EB090404FA06F622FA01F31E4347
:100DE000CC40C5E9006400214FE7B1FBF2FC010CE7
:100DF00041EA0E4180B240EA01423B4638463C4659
:100E0000B846BE462026B1FBF7F1A2EB080241EA44
:100E10000C4166E7014618E710462CE7C6F12002B0
:100E20002EFA02F3B740B14020FA02F24FEA174E11
:100E30000A43B3FBFEF8BCB20EFB1833110C41EAB7
:100E4000034108FB04F9B04089454FEA104380B2E2
:100E50003ED9791808F1FF3C01D289451FD8A1EB92
:100E60000901B1FBFEF909FB04F80EFB191192B25E
:100E700042EA0142424529D2BA1809F1FF31C4D2EF
:100E80004245C2D2A9F102013A44BEE7F0459DD2E3
:100E9000BEEB02036CEB070C0138E14696E7A7EBCB
:100EA00009094944A8F1020CB1FBFEF909FB04F859
:100EB000DBE773467FE7504666E70846FDE63B44BE
:100EC000023A33E7ACF1020C3B441CE749469CE78D
:100ED000A1EB0901C446B1FBFEF909FB04F8C4E724
:100EE000704700BF08B50268034B9A4200D008BDA6
:100EF00001F0FCF9FBE700BF0000014072B6FEE71D
:100F000000B595B03022002108A804F01BFD002395
:100F10000393049305930693079301931E4A116C60
:100F200041F080511164126C02F080520192019ADA
:100F300002931A4A116841F440411160126802F4A8
:100F400040420292029A0221089101220B92102241
:100F50000C920E910F9310924FF4A87311930423E7
:100F60001293139308A800F0EDFC80B90F230393AC
:100F700002210491002305934FF4805206920793B7
:100F800003A800F049FF20B915B05DF804FBFFF796
:100F9000B5FFFFF7B3FF00BF00380240007000400C
:100FA00008B501F089F9FFF7ABFF00F00BF803F08B
:100FB000E3F803F083FD02F0D1FC00F0E9F802F061
:100FC000DFFCFEE730B58BB000240594069407944F
:100FD000089409940194224B1A6B42F004021A639C
:100FE0001A6B02F004020192019A02941A6B42F009
:100FF00080021A631A6B02F080020292029A039432
:101000001A6B42F001021A631A6B02F0010203929A
:10101000039A04941A6B42F002021A631B6B03F0EA
:1010200002030493049B0F4D22462021284601F021
:10103000CBF84FF4005305934FF404130693079431
:1010400005A9094800F0DCFF20230593012306933E
:101050000794089405A9284600F0D2FF0BB030BDD4
:1010600000380240000002400008024070B58EB017
:1010700009AC3E4D0FCD0FC42B68237009A8FFF7B4
:10108000FFF84FF0FF3382B209A9394803F091FE0F
:1010900000F04CFA002000F0ADFA0021084600F004
:1010A00093F900F07FFA642002F0EAFC314C00254D
:1010B00025604FF4FA7002F0E3FC22682E4B1A60B0
:1010C000256002F079FC054600242A4B1C6020466E
:1010D00000F090FA294B1868FFF73EFA02460B46DB
:1010E000274901A804F04AFB2146204600F06CF98C
:1010F000012101A800F0BAF91F4E3268214901A868
:1011000004F03CFB1421204600F05EF9012101A807
:1011100000F0ACF900F046FA20211B4801F05AF823
:1011200005F5FA75284602F0B9FC3368002BCBD0E0
:10113000104BD3ED006AF8EE666AD6ED007AF8EE51
:10114000677A86EEA77ADFED117A27EE277A77EEB7
:10115000C77A0A4BC3ED007AD3ED007AF5EEC07A78
:10116000F1EE10FAB0D500221A60ADE79C7B0008C2
:10117000FC4F002000020020FC010020F8010020AC
:10118000807B0008907B0008000002400000C842FD
:1011900008B5044A0021044802F018FC034B18600B
:1011A00008BD00BFD47B00086D100008F4010020CA
:1011B000054B1A686FF47A739A4203D2024A136895
:1011C00001331360704700BF00020020FEE7FEE716
:1011D000FEE7FEE7FEE7704708B5024800F082FA36
:1011E00008BD00BF0402002000B583B000220092B9
:1011F0000D4B596C41F480415964596C01F48041A4
:10120000009100990192196C41F0805119641B6C96
:1012100003F080530193019B0F216FF0010001F057
:1012200037F803B05DF804FB0038024030B589B0F0
:101230000546002401941D4B5A6C42F001025A6489
:101240005B6C03F001030193019B02A903A800F06A
:10125000B9FE00F0A7FE164AA2FB00239B0C013B3F
:101260001448154A026040F2E732C26043600461EC
:101270008460846100F038FB044610B1204609B058
:1012800030BD0C4800F0EEF904460028F6D11920D4
:1012900001F00EF80F2D01D90124EFE700222946B5
:1012A000192000F0F5FF054B1D60E7E7003802400C
:1012B00083DE1B43040200200000014004000020E4
:1012C00003789BB113F0800F13D003F0E002C02A23
:1012D00013D003F0F002E02A1AD003F0F802F02A4B
:1012E00025D001230B704FF0FF30704700200870AD
:1012F000704701220A701846704702220A709B014B
:1013000003F4F863427802F03F0243EA02007047B8
:1013100003220A701B039BB24278920102F47C62A2
:101320001343827802F03F0243EA0200704704222E
:101330000A709B0403F4E0134278120302F47C3237
:1013400013438278920102F47C621343C27802F064
:101350003F0243EA020070472DE9F04F83B001904D
:101360008A4691461E469DF830B000251FE0C4F124
:10137000070348FA03F303F0010363B90134E4B24D
:10138000B44212D2072CF2D9C4F10F0347FA03F387
:1013900003F00103F1E705EB090104EB0A005A46EB
:1013A000C9B2C0B200F034F9E8E70135EDB20B2D57
:1013B00007D86B00019A12F815800133D75C00241E
:1013C000DEE703B0BDE8F08F024B1870024B1970D6
:1013D000704700BF4D0200204C02002010B582B0C3
:1013E000A0F120035E2B16D8C3B2203BDBB203EB87
:1013F0004302194800EBC200184AD45C184B93F81A
:1014000000C00CEB0403802B22DC164B1A78342A24
:1014100012D900241DE0A0F52C4242F6A3339A42D3
:1014200014D880B200F5A84080B200EB40000E4B0B
:1014300003EBC0000C24E1E7009123466146FFF76F
:101440008BFF074A13782344137002E0002400E066
:101450000024204602B010BDF87B0008E08400089C
:101460004D0200204C0200204085000830B583B0BA
:1014700004460D4607E0204B00221A701F4A1378DD
:101480000C33137001342378A3B30A2BF3D00DF17E
:1014900007012046FFF714FF9DF80730A3B1B0F114
:1014A000FF3F11D0A0F120035E2B0FD8144AD25C6D
:1014B0009AB9124B1B78342B1CD82946FFF78EFFA4
:1014C0009DF807301C44DEE70134DCE7A0F52C4230
:1014D00042F6A3339A42ECD80C22074B1B781344F4
:1014E000802BE6DD044B00221A70044A13780C337B
:1014F0001370DEE703B030BD4D0200204C02002027
:10150000E084000800B585B000238DF80C308DF81C
:101510000D0064230093022303AA7821024803F0FC
:101520005FF905B05DF804FBA84F002008B5642002
:1015300002F0A6FAA820FFF7E5FF3F20FFF7E2FF41
:10154000D320FFF7DFFF0020FFF7DCFF4020FFF78D
:10155000D9FFA020FFF7D6FFC020FFF7D3FFDA2086
:10156000FFF7D0FF1220FFF7CDFF8120FFF7CAFF62
:101570007F20FFF7C7FFA420FFF7C4FFA620FFF7D7
:10158000C1FFD520FFF7BEFF8020FFF7BBFF8D20F6
:10159000FFF7B8FF1420FFF7B5FFAF20FFF7B2FF4A
:1015A00008BD000010B584B000241AE0A4F150007A
:1015B000C0B2FFF7A7FF0020FFF7A4FF1020FFF73E
:1015C000A1FF6423029380230193084B03EBC41310
:1015D0000093012340227821054803F0BDF901342E
:1015E000E4B2072CE2D904B010BD00BF50020020C5
:1015F000A84F002008B5012806D000214FF48062D2
:10160000024804F09FF908BDFF21F7E750020020CF
:101610003F2913D810F0800F10D1012A0FD0CB082A
:101620000E4A02EBC31212F800C001F007010123B9
:101630008B40DB435BB20CEA030313547047CA08C8
:10164000064B03EBC2131A5C01F007014FF0010CCB
:101650000CFA01F10A431A54704700BF50020020EF
:101660007047000090F83D30DBB2012B2FD10223F0
:1016700080F83D300268D36843F00103D36003680B
:10168000154A934218D0B3F1804F15D0A2F57C4291
:10169000934211D002F5806293420DD002F5806230
:1016A000934209D002F59A32934205D01A6842F06B
:1016B00001021A60002070479A6802F00702062AA9
:1016C00007D01A6842F001021A600020704701201A
:1016D00070470020704700BF00000140704770470E
:1016E0007047704770B504460368DE681D6915F0E1
:1016F000020F10D016F0020F0DD06FF002021A6127
:101700000123037703689B6913F0030F5ED0FFF793
:10171000E6FF0023237715F0040F12D016F0040F14
:101720000FD023686FF004021A6102232377236825
:101730009B6913F4407F4FD02046FFF7D0FF002372
:10174000237715F0080F12D016F0080F0FD023687A
:101750006FF008021A61042323772368DB6913F012
:10176000030F40D02046FFF7BAFF0023237715F080
:10177000100F12D016F0100F0FD023686FF0100268
:101780001A61082323772368DB6913F4407F31D083
:101790002046FFF7A4FF0023237715F0010F02D0A6
:1017A00016F0010F2DD115F0800F02D016F0800F2A
:1017B0002FD115F0400F02D016F0400F31D115F0A7
:1017C000200F02D016F0200F33D170BDFFF786FF37
:1017D0002046FFF785FF9CE72046FFF77FFF204666
:1017E000FFF77EFFABE72046FFF778FF2046FFF7C5
:1017F00077FFBAE72046FFF771FF2046FFF770FF3B
:10180000C9E723686FF001021A612046FFF76AFBFF
:10181000C9E723686FF080021A61204600F091F852
:10182000C7E723686FF040021A612046FFF759FFAF
:10183000C5E723686FF020021A61204600F080F8A7
:10184000C3E700000368274A90420ED0B0F1804FF2
:101850000BD0A2F57C42904207D002F58062904204
:1018600003D002F58062904203D123F070034A68EE
:1018700013431C4A90421AD0B0F1804F17D0A2F502
:101880007C42904213D002F5806290420FD002F564
:10189000806290420BD002F59A32904207D002F556
:1018A0008062904203D002F58062904203D123F41B
:1018B0004073CA68134323F080034A6913438A685C
:1018C000C2620A688262074A904207D0026842F008
:1018D0000402026001224261036070470A690263E8
:1018E000F4E700BF0000014040B310B5044690F893
:1018F0003D30F3B1022384F83D30214651F8040B0A
:10190000FFF7A0FF012384F8463084F83E3084F8C6
:101910003F3084F8403084F8413084F8423084F815
:10192000433084F8443084F8453084F83D3000205A
:1019300010BD80F83C30FFF793FEDBE701207047D5
:1019400070477047002800F0E08170B582B004460F
:10195000036813F0010F3BD09F4B9B6803F00C030F
:10196000042B2CD09C4B9B6803F00C03082B21D03C
:101970006368B3F5803F4FD0B3F5A02F52D0964B9C
:101980001A6822F480321A601A6822F480221A60DF
:101990006368002B50D000F0B5FC05468E4B1B68E9
:1019A00013F4003F14D100F0ADFC401B6428F5D9BE
:1019B0000320B1E1884B5B6813F4800FD8D0864BCD
:1019C0001B6813F4003F03D06368002B00F09F8175
:1019D000236813F0020F54D07F4B9B6813F00C0F59
:1019E0003ED07D4B9B6803F00C03082B33D0E3689B
:1019F000002B68D0794B01221A6000F083FC054669
:101A0000754B1B6813F0020F54D100F07BFC401B98
:101A10000228F5D903207FE16F4A136843F480332D
:101A20001360B5E76C4B1A6842F480221A601A689A
:101A300042F480321A60ABE700F064FC0546664B66
:101A40001B6813F4003FC3D000F05CFC401B64280B
:101A5000F5D9032060E1604B5B6813F4800FC6D1B9
:101A60005D4B1B6813F0020F03D0E368012B40F0BD
:101A70005081594A136823F0F803216943EAC103EE
:101A80001360236813F0080F42D063696BB3534BA4
:101A90000122C3F8802E00F035FC05464E4B5B6FEB
:101AA00013F0020F34D100F02DFC401B0228F5D9B1
:101AB000032031E1484A136823F0F803216943EA1F
:101AC000C1031360DDE7454B00221A6000F01AFCE9
:101AD0000546414B1B6813F0020FD2D000F012FCF8
:101AE000401B0228F5D9032016E13C4B0022C3F825
:101AF000802E00F007FC0546374B5B6F13F0020F9A
:101B000006D000F0FFFB401B0228F5D9032003E1BB
:101B1000236813F0040F77D02F4B1B6C13F0805FFA
:101B200033D1002301932C4B1A6C42F080521A647B
:101B30001B6C03F080530193019B0125284B1B680C
:101B400013F4807F23D0A368012B34D0052B38D029
:101B5000214B1A6F22F001021A671A6F22F0040259
:101B60001A67A368002B3DD000F0CCFB06461A4B49
:101B70001B6F13F0020F46D100F0C4FB801B41F233
:101B800088339842F3D90320C6E00025D6E7144AEB
:101B9000136843F48073136000F0B4FB0646104BE7
:101BA0001B6813F4807FCED100F0ACFB801B0228B1
:101BB000F5D90320B0E0084A136F43F0010313671F
:101BC000CFE7054B1A6F42F004021A671A6F42F012
:101BD00001021A67C5E700BF003802400000474213
:101BE0000070004000F08EFB0646524B1B6F13F056
:101BF000020F08D000F086FB801B41F28833984228
:101C0000F3D9032088E0EDB9A369002B00F08380AD
:101C1000484A926802F00C02082A51D0022B17D0D1
:101C2000454B00221A6600F06DFB0446414B1B68D1
:101C300013F0007F42D000F065FB001B0228F5D9AD
:101C4000032069E03B4A136C23F080531364DBE705
:101C5000394B00221A6600F055FB0546354B1B68D0
:101C600013F0007F06D000F04DFB401B0228F5D991
:101C7000032051E0E369226A1343626A43EA821354
:101C8000A26A5208013A43EA0243E26A43EA026363
:101C9000284A5360284B01221A6600F033FB0446A1
:101CA000244B1B6813F0007F06D100F02BFB001BB8
:101CB0000228F5D903202FE000202DE000202BE0A2
:101CC000012B2BD01B4B5B6803F48001E26991422E
:101CD00026D103F03F02216A8A4223D1616A47F686
:101CE000C0721A40B2EB811F1ED103F44031A26AC8
:101CF0005208013AB1EB024F18D103F07063E26A67
:101D0000B3EB026F14D1002006E0012070470120E0
:101D100002E0012000E0002002B070BD0120FBE7DE
:101D20000120F9E70120F7E70120F5E70120F3E7BB
:101D30000120F1E7003802400000474208B5334B6C
:101D40009B6803F00C03042B5BD0082B5BD12F4B5B
:101D50005A6802F03F025B6813F4800F2CD02B4BC3
:101D60005868C0F388104FEA401CBCEB000C6EEBC7
:101D70000E0E4FEA8E1343EA9C634FEA8C11B1EBCF
:101D80000C0163EB0E03DB0043EA5173C90011EB56
:101D9000000C43F10003590200234FEA4C2041EAB2
:101DA000DC51FEF709FF194B5B68C3F301430133B4
:101DB0005B00B0FBF3F008BD144B5868C0F388100B
:101DC0004FEA401CBCEB000C6EEB0E0E4FEA8E137C
:101DD00043EA9C634FEA8C11B1EB0C0163EB0E03F9
:101DE000DB0043EA5173C90011EB000C43F100031F
:101DF000990200234FEA8C2041EA9C51FEF7DCFE59
:101E0000D1E70348D7E70348D5E700BF00380240D1
:101E100000127A000024F400002800F09B8070B5C6
:101E20000D4604464F4B1B6803F007038B4208D254
:101E3000CBB24C4A1370136803F007038B4240F097
:101E40008B80236813F0020F17D013F0040F04D017
:101E5000454A936843F4E0539360236813F0080FF6
:101E600004D0414A936843F4604393603E4A9368C8
:101E700023F0F003A1680B439360236813F0010F74
:101E800032D06368012B21D09A1E012A25D9364A07
:101E9000126812F0020F61D033498A6822F00302FF
:101EA00013438B6000F02EFA06462F4B9B6803F01D
:101EB0000C036268B3EB820F16D000F023FA801B8C
:101EC00041F288339842F0D9032042E0264A126852
:101ED00012F4003FE0D101203BE0234A126812F0E7
:101EE000007FD9D1012034E01E4B1B6803F00703AB
:101EF000AB4207D9EAB21B4B1A701B6803F0070309
:101F0000AB422DD1236813F0040F06D0164A936814
:101F100023F4E053E1680B439360236813F0080F48
:101F200007D0114A936823F46043216943EAC1034F
:101F30009360FFF703FF0C4B9B68C3F303130B4A3B
:101F4000D35CD8400A4B18600A4B1868FFF76EF94B
:101F5000002070BD012070470120FAE70120F8E75A
:101F60000120F6E7003C024000380240A89C04082B
:101F70000800002004000020014B1868704700BFD3
:101F80000800002008B5FFF7F7FF044B9B68C3F378
:101F90008223034AD35CD84008BD00BF003802400A
:101FA000A09C040808B5FFF7E7FF044B9B68C3F348
:101FB0004233034AD35CD84008BD00BF003802401A
:101FC000A09C04080F2303600B4B9A6802F00302E5
:101FD00042609A6802F0F00282609A6802F4E0526D
:101FE000C2609B68DB0803F4E0530361034B1B688A
:101FF00003F007030B60704700380240003C0240CA
:1020000000230F2B00F2D78070B582B065E08568A1
:102010004FEA430E032404FA0EF425EA0405CC68C3
:1020200004FA0EF42C438460446824EA02044A68EB
:10203000C2F300129A40224342605CE0DC0808349C
:1020400050F8242003F00705AD004FF00F0E0EFAF4
:1020500005FE22EA0E0E0A69AA4042EA0E0240F884
:1020600024205CE0042200E0002202FA0EF22A435F
:102070000234514D45F82420504A94686FEA0C020E
:1020800024EA0C054E6816F4801F01D04CEA0405C2
:102090004A4CA560E46802EA04054E6816F4001F85
:1020A00001D04CEA0405454CE560646802EA040589
:1020B0004E6816F4003F01D04CEA04053F4C6560C1
:1020C000246822404D6815F4803F01D04CEA040298
:1020D0003A4C226001330F2B6BD801229A400C68D6
:1020E00004EA020C32EA0404F4D14C6804F003045C
:1020F000013C012C8BD94A6802F00302032A09D063
:10210000C4685D000322AA4024EA02048A68AA4047
:102110002243C2604A6802F00302022A8ED0046899
:102120004FEA430E032202FA0EF224EA02044A683E
:1021300002F0030202FA0EF2224302604A6812F42D
:10214000403FC7D0002201921D4A546C44F48044A1
:102150005464526C02F480420192019A9C08A51CBE
:10216000154A52F8255003F0030E4FEA8E0E0F2247
:1021700002FA0EF225EA0205124A90423FF474AFC9
:1021800002F5806290420ED002F5806290420CD03F
:1021900002F5806290420AD002F5806290423FF4DC
:1021A00061AF072261E701225FE702225DE70322B8
:1021B0005BE702B070BD704700380140003C014051
:1021C00000380240000002400AB1816170470904F2
:1021D00081617047436901EA030221EA030141EA90
:1021E0000241816170470000002807DB00F01F02F8
:1021F000400901239340024A42F82030704700BF53
:1022000000E100E0002808DB0901C9B200F16040EC
:1022100000F5614080F80013704700F00F000901DD
:10222000C9B2014B1954704714ED00E000B500F03D
:102230000700C0F1070CBCF1040F28BF4FF0040CDD
:10224000031D062B0FD9C31E4FF0FF3E0EFA0CF0F4
:1022500021EA000199400EFA03FE22EA0E0241EA49
:1022600002005DF804FB0023EEE70000074AD36894
:1022700023F4E0631B041B0C000200F4E060034342
:1022800043F0BF6343F40033D360704700ED00E0D8
:1022900010B50446054BD868C0F30220FFF7C6FF0F
:1022A00001462046FFF7AEFF10BD00BF00ED00E085
:1022B00008B5FFF799FF08BD08B50B4B1A6842F443
:1022C00000721A601A6842F480621A601A6842F456
:1022D00080721A600320FFF7C9FF0F20FEF7A6FFE8
:1022E000FEF782FF002008BD003C0240034A11684F
:1022F000034B1B780B441360704700BF500600204F
:1023000000000020014B1868704700BF50060020F5
:10231000034AD2F8883043F47003C2F8883070471B
:1023200000ED00E000F1080343604FF0FF328260EF
:10233000C36003610023036070470023036170479B
:1023400043684B609A688A605160996008610368CD
:1023500001330360704730B40D68B5F1FF3F11D011
:1023600000F108031C465B681A68AA42FAD9636840
:102370004B6099608C6061600861036801330360A1
:1023800030BC70470469F2E70369416882688A607B
:10239000416851605A68824206D0002202611A6880
:1023A000013A1A601868704782685A60F5E710B5FC
:1023B000044601F02FFDA26BE36B9A4204D0002487
:1023C00001F04AFD204610BD0124F9E710B504468E
:1023D00001F020FDA36B23B9012401F03DFD20464F
:1023E00010BD0024F9E770B504461546866B026CF3
:1023F0005AB903681BB100200136A66370BD80681E
:1024000001F02EF80023A360F6E76DB9406803F0F1
:10241000D3FA6368226C13446360A268934219D3B1
:10242000236863602846E7E7C06803F0C5FAE368FD
:10243000226C51429B1AE3602268934202D2A36845
:102440000B44E360022D01D00020D5E726B1013E08
:102450000020D1E72846CFE70020CDE70346026CF5
:102460006AB110B50846D9681144D9609C68A14288
:1024700001D31968D960D96803F09EFA10BD70477E
:1024800038B5054601F0C6FC95F8454064B201E058
:10249000013C64B2002C0ADD6B6A43B105F12400F3
:1024A00000F034FF0028F3D000F0C4FFF0E7FF2372
:1024B00085F8453001F0D0FC01F0ACFC95F84440C3
:1024C00064B201E0013C64B2002C0ADD2B6943B127
:1024D00005F1100000F01AFF0028F3D000F0AAFF69
:1024E000F0E7FF2385F8443001F0B6FC38BD38B57D
:1024F000E0B10D46044601F08DFC2368E26B216CCF
:1025000001FB0230A0600020A0636360013A02FB7F
:102510000133E360FF2384F8443084F84530FDB98B
:10252000236963B901F098FC012038BD4FF05003D6
:1025300083F31188BFF36F8FBFF34F8FFEE704F172
:10254000100000F0E3FE0028ECD04FF0E0234FF045
:102550008052C3F8042DBFF34F8FBFF36F8FE1E7B5
:1025600004F11000FFF7DEFE04F12400FFF7DAFEAD
:10257000D8E738B51D46049C0B4649B92460E06392
:10258000236401212046FFF7B2FF84F84C5038BD88
:102590002260F4E740B94FF0500383F31188BFF392
:1025A0006F8FBFF34F8FFEE710B584B01C46844693
:1025B00053B192B189B94FF0500383F31188BFF33F
:1025C0006F8FBFF34F8FFEE74FF0500383F31188F7
:1025D000BFF36F8FBFF34F8FFEE76AB150230393B2
:1025E000039B502B13D04FF0500383F31188BFF39C
:1025F0006F8FBFF34F8FFEE70029EFD04FF05003EE
:1026000083F31188BFF36F8FBFF34F8FFEE7039BF8
:10261000012384F8463000949DF818306046FFF797
:10262000A8FF204604B010BDF0B585B0019288B176
:102630000F461D460446B1B1022D20D1E36B012B9C
:102640001DD04FF0500383F31188BFF36F8FBFF39A
:102650004F8FFEE74FF0500383F31188BFF36F8F66
:10266000BFF34F8FFEE7036C002BE5D04FF0500314
:1026700083F31188BFF36F8FBFF34F8FFEE700F036
:10268000DFFE064658B9019B002B48D04FF050039F
:1026900083F31188BFF36F8FBFF34F8FFEE70026E0
:1026A0003DE02A4639462046FFF79DFE636A7BB926
:1026B00048B14FF0E0234FF08052C3F8042DBFF330
:1026C0004F8FBFF36F8F01F0C7FB012005B0F0BD46
:1026D00004F1240000F01AFE0028F4D04FF0E023AB
:1026E0004FF08052C3F8042DBFF34F8FBFF36F8FAD
:1026F000E9E701F0B1FB0020E8E702A800F04CFE9A
:10270000012619E0002384F8443021E0002384F8F6
:10271000453023E02046FFF7B3FE00F083FC01F0D4
:1027200079FBA26BE36B9A42BBD3022DB9D0019B1C
:10273000002BDED0002EE0D001F08EFB00F0D0FBAD
:1027400001F068FB94F8442052B2B2F1FF3FD9D0B7
:1027500094F8452052B2B2F1FF3FD7D001F07CFB94
:1027600001A902A800F024FED8B92046FFF71FFEF9
:102770000028CFD0019904F1100000F093FD20460D
:10278000FFF77EFE00F04EFC0028C8D14FF0E0239A
:102790004FF08052C3F8042DBFF34F8FBFF36F8FFC
:1027A000BDE72046FFF76CFE00F03CFC00208DE703
:1027B0002DE9F84390B10F4616461C460546B1B1C7
:1027C000022C20D1EB6B012B1DD04FF0500383F373
:1027D0001188BFF36F8FBFF34F8FFEE74FF05003A9
:1027E00083F31188BFF36F8FBFF34F8FFEE7036C46
:1027F000002BE5D04FF0500383F31188BFF36F8FA8
:10280000BFF34F8FFEE701F02BFCEFF311884FF081
:10281000500383F31188BFF36F8FBFF34F8FAA6B01
:10282000EB6B9A4206D3022C04D0002088F3118867
:10283000BDE8F88395F845904FFA89F9AB6B2246CD
:1028400039462846FFF7CFFDB9F1FF3F06D009F121
:1028500001035BB285F845300120E7E76B6A0BB9ED
:102860000120E3E705F1240000F050FD18B126B186
:1028700001203060DAE70120D8E70120D6E7F0B583
:1028800085B0019290B10F460446C1B100F0D8FD69
:10289000064600BB019B002B5ED04FF0500383F334
:1028A0001188BFF36F8FBFF34F8FFEE74FF05003D8
:1028B00083F31188BFF36F8FBFF34F8FFEE7036C75
:1028C000002BE3D04FF0500383F31188BFF36F8FD9
:1028D000BFF34F8FFEE700263EE039462046FFF764
:1028E000BDFD013DA563236923B901F0B5FA0120BF
:1028F00005B0F0BD04F1100000F008FD0028F4D090
:102900004FF0E0234FF08052C3F8042DBFF34F8FF8
:10291000BFF36F8FE9E701F09FFA0020E8E702A814
:1029200000F03AFD012621E0002384F8443029E03C
:10293000002384F845302BE02046FFF7A1FD00F08E
:1029400071FB09E02046FFF79BFD00F06BFB204682
:10295000FFF73CFD00283FD101F05CFAA56B002D8C
:10296000BBD1019B002BD6D0002ED8D001F074FA39
:1029700000F0B6FA01F04EFA94F844305BB2B3F1CD
:10298000FF3FD1D094F845305BB2B3F1FF3FCFD0D9
:1029900001F062FA01A902A800F00AFD0028D1D1D5
:1029A0002046FFF713FD0028C6D0019904F124004A
:1029B00000F078FC2046FFF763FD00F033FB0028B1
:1029C000CAD14FF0E0234FF08052C3F8042DBFF37B
:1029D0004F8FBFF36F8FBFE7002089E70023072BDE
:1029E0000CD8074A52F833200AB10133F7E7044AFA
:1029F00042F8331002EBC30250607047704700BFCB
:102A00005406002070B504460D46164601F002FA41
:102A100094F844305BB2B3F1FF3F0DD094F84530E9
:102A20005BB2B3F1FF3F0BD001F016FAA36B5BB1C1
:102A30002046FFF725FD70BD002384F84430EDE704
:102A4000002384F84530EFE73246294604F124009C
:102A500000F040FCECE70000084B1B681B6823B942
:102A6000074B4FF0FF321A607047044B1B68DB685E
:102A7000DB685A68024B1A60704700BF04070020E9
:102A80009C0600202DE9F04780460D4617469946E2
:102A9000089EDDF824A00A9C9200A521206B02F07C
:102AA00051FF236B07F18042013A03EB820727F0C5
:102AB0000707A5B34FF0000CBCF10F0F09D815F8AC
:102AC0000C3004EB0C0282F8343013B10CF1010C21
:102AD000F2E7002384F84330372E00D93726E66228
:102AE000E66400252565201DFFF727FC04F118008A
:102AF000FFF723FC2461C6F13806A66164626565B0
:102B000084F858504A464146384601F059F9206049
:102B1000BAF1000F01D0CAF80040BDE8F0870023E9
:102B200084F83430D8E7000038B5002407E004EB1F
:102B3000840293000E481844FFF7F4FB0134372C4D
:102B4000F5D90C4D2846FFF7EDFB0B4C2046FFF75F
:102B5000E9FB0A48FFF7E6FB0948FFF7E3FB0948F2
:102B6000FFF7E0FB084B1D60084B1C6038BD00BF41
:102B7000300700201C07002008070020EC0600207A
:102B8000D8060020C006002004070020000700200F
:102B900010B5044601F03EF9224A13680133136070
:102BA000214B1B685BB1214B1B686BB91E4B1B682B
:102BB000DA6AE36A9A4207D81B4B1C6004E01A4B9E
:102BC0001C601368012B29D0194A13680133136064
:102BD0006364E06A174B1B68984201D9154B186073
:102BE00000EB8000211D144B03EB8000FFF7A8FBD6
:102BF00001F032F90D4B1B687BB10B4B1B68DA6A95
:102C0000E36A9A4209D24FF0E0234FF08052C3F8B2
:102C1000042DBFF34F8FBFF36F8F10BDFFF784FFFD
:102C2000D2E700BFBC060020900B0020B0060020B9
:102C3000A0060020B40600203007002010B504468E
:102C400090F8593063B1012B11D0022B0ED04FF008
:102C5000500383F31188BFF36F8FBFF34F8FFEE7ED
:102C6000006B01F031F8204601F02EF810BD01F0A4
:102C70002BF8FBE70F4B1B68D3B110B501F0CAF876
:102C80000D4BDB68DC68201DFFF77EFB0B4A1368E9
:102C9000013B1360074A1368013B136001F0DCF845
:102CA0002046FFF7CBFF034B1B68002BE6D110BD7E
:102CB000704700BFD4060020D8060020BC060020C4
:102CC00070B504460D46174B1E68174B1868043044
:102CD000FFF75AFBB4F1FF3F0DD03444124B1B6891
:102CE0005C60A64210D9114B18680F4B196804316B
:102CF000FFF731FB70BD002DEFD00B4B196804318D
:102D00000B48FFF71DFBF5E70A4B1868064B1968DF
:102D10000431FFF720FB084B1B68A342EAD9064B9E
:102D20001C60E7E7B8060020900B00200007002099
:102D3000C0060020040700209C06002008B50BE018
:102D40004FF0E0234FF08052C3F8042DBFF34F8FB4
:102D5000BFF36F8FFEF72CFAFFF78CFF024B1B6857
:102D6000012BEDD8F6E700BF3007002030B587B063
:102D70000B9C7CB10C9DB5B15C250495049D5C2D2C
:102D80001AD04FF0500383F31188BFF36F8FBFF356
:102D90004F8FFEE74FF0500383F31188BFF36F8F1F
:102DA000BFF34F8FFEE74FF0500383F31188BFF35B
:102DB0006F8FBFF34F8FFEE7049D0C9D2C630224A1
:102DC00085F8594000240394029505AC01940A9CAF
:102DD0000094FFF757FE0C98FFF7DAFE059807B04E
:102DE00030BD2DE9F04385B00746884614461E469F
:102DF000900000F0E7FE08B381465C2000F0E2FEA0
:102E00000546A8B1C0F83090002380F859300393EC
:102E100002900D9B01930C9B009333462246414642
:102E20003846FFF72FFE2846FFF7B2FE012007E0E5
:102E3000484600F049FF4FF0FF3001E04FF0FF300F
:102E400005B0BDE8F083000010B588B000240594FB
:102E5000069407AA06A905A800F038FE059B029370
:102E6000069B019300942346079A17491748FFF7DA
:102E70007DFF174B1860C0B100F0A6FB012815D1EB
:102E80004FF0500383F31188BFF36F8FBFF34F8F61
:102E9000104B4FF0FF321A600F4B01221A600F4B9C
:102EA00000221A6001F050F803E00020B0F1FF3F6B
:102EB00001D008B010BD4FF0500383F31188BFF369
:102EC0006F8FBFF34F8FFEE7BC7B00083D2D0008DE
:102ED000980600209C060020B0060020B8060020BE
:102EE000024A136801331360704700BF9406002044
:102EF000014B1868704700BFB806002008B501F004
:102F0000AFF8014B186808BDB8060020F8B53A4B79
:102F10001B68002B69D1394B1D6801351D60C5B98F
:102F2000374B1B681B6843B14FF0500383F3118884
:102F3000BFF36F8FBFF34F8FFEE7314A1168314BFC
:102F4000186810601960304A136801331360FFF786
:102F500083FD2E4B1B68AB423DD900272C4B1B68D1
:102F6000DB6A03EB83039A002A4B9B58012B00D9A1
:102F70000127294B1B68002B3CD001273AE0012791
:102F80001F4B1B681B6843B31D4B1B68DB68DC6869
:102F900063689D4226D3261D3046FFF7F5F9A36AE4
:102FA0001BB104F11800FFF7EFF9E36A1B4A12683E
:102FB000934201D9194A136003EB83039A00314607
:102FC00014481044FFF7BCF9E26A114B1B68DB6A36
:102FD0009A42D4D2D4E70027D2E70C4B4FF0FF320D
:102FE0001A60BBE7094A1360B8E70D4A136801335A
:102FF000136000273846F8BD94060020B80600206C
:103000000407002000070020A40600209C060020E2
:10301000900B002030070020A8060020B4060020F6
:10302000AC06002038B5354B1B6843B94FF0500350
:1030300083F31188BFF36F8FBFF34F8FFEE700F06C
:10304000E9FE2E4B1A68013A1A601B68002B4FD11B
:103050002B4B1B680BB900244BE00024294B1B6849
:103060001BB3284BDB68DC6804F11800FFF78CF910
:10307000251D2846FFF788F9E06A234B1B68984214
:1030800001D9214B186000EB800029461F4B03EB50
:103090008000FFF755F9E26A1D4B1B68DB6A9A4214
:1030A000DCD31C4B01221A60D8E70CB1FFF7D4FC2B
:1030B000194B1C6884B9174B1C68D4B14FF0E0233E
:1030C0004FF08052C3F8042DBFF34F8FBFF36F8FC3
:1030D00001240EE0013C07D0FFF718FF0028F9D0CB
:1030E0000C4B01221A60F5E70B4B00221A60E2E755
:1030F000002400F0B1FE204638BD00BF9406002039
:10310000BC060020EC060020B4060020300700209A
:10311000900B0020A8060020AC06002038B558B15E
:103120000C46054689B94FF0500383F31188BFF36D
:103130006F8FBFF34F8FFEE74FF0500383F311887B
:10314000BFF36F8FBFF34F8FFEE71B4B1B6843B17D
:103150004FF0500383F31188BFF36F8FBFF34F8F8E
:10316000FEE7FFF7BDFE154B18682B681C44834231
:1031700009D9A34201D82C600EE0A04201D32C60F3
:103180000AE02C6004E0A34201D8A04212D22C60D5
:103190000021201AFFF794FDFFF744FF48B94FF0D4
:1031A000E0234FF08052C3F8042DBFF34F8FBFF3DD
:1031B0006F8F38BD2C60EFE794060020B806002022
:1031C00010B5A8B10446104B1B6843B14FF0500333
:1031D00083F31188BFF36F8FBFF34F8FFEE7FFF7C5
:1031E0007FFE00212046FFF76BFDFFF71BFF48B96C
:1031F0004FF0E0234FF08052C3F8042DBFF34F8F00
:10320000BFF36F8F10BD00BF94060020204B1B68DA
:103210001BB1204B01221A6070471E4B00221A601E
:103220001D4B1B6803EB83018A001C498A585AB95D
:103230000BB1013BF6E74FF0500383F31188BFF366
:103240006F8FBFF34F8FFEE7084603EB83018A00C1
:10325000024451684968516003EB830C4FEA8C02C9
:103260000832024491420BD003EB830291000B4AD7
:103270000A445268D1680A4A1160074A13607047CD
:10328000486862469100054A0A445060ECE700BF76
:1032900094060020A8060020B40600203007002075
:1032A000900B002058B110B50C46094A116818312E
:1032B000FFF751F801212046FFF702FD10BD4FF046
:1032C000500383F31188BFF36F8FBFF34F8FFEE777
:1032D000900B002038B570B10D4614460A4A1168AB
:1032E0001831FFF72DF80CB14FF0FF352146284675
:1032F000FFF7E6FC38BD4FF0500383F31188BFF3AE
:103300006F8FBFF34F8FFEE7900B002038B5C36877
:10331000DC6824B304F118052846FFF735F8184B8C
:103320001B682BBB251D2846FFF72EF8E06A154BBE
:103330001B68984201D9134B186000EB80002946A6
:10334000114B03EB8000FEF7FBFFE26A0F4B1B689B
:10335000DB6A9A4211D901200D4B186038BD4FF03D
:10336000500383F31188BFF36F8FBFF34F8FFEE7D6
:1033700029460848FEF7E4FFE7E70020EEE700BF34
:1033800094060020B406002030070020900B002097
:10339000A8060020EC060020034B1B680360034BCB
:1033A0001B684360704700BFA4060020B8060020D9
:1033B000F8B5C8B10C460546F9B100F02BFD1B4B22
:1033C00019686B68C81A2268B2F1FF3F26D0184E00
:1033D00036682F68B74201D08B4224D9824215D873
:1033E0000023236001241AE04FF0500383F3118877
:1033F000BFF36F8FBFF34F8FFEE74FF0500383F3A0
:103400001188BFF36F8FBFF34F8FFEE75B1A134432
:1034100023602846FFF7C0FF002400E0002400F0EE
:103420001BFD2046F8BD0124F9E700BFB8060020C7
:10343000A4060020014B01221A607047A806002054
:10344000054B1B6833B1054B1B680BB1002070475F
:103450000220704701207047B0060020940600202B
:1034600000283BD038B504461E4B1B68834208D069
:103470004FF0500383F31188BFF36F8FBFF34F8F6B
:10348000FEE7036D43B94FF0500383F31188BFF398
:103490006F8FBFF34F8FFEE7013B0365C16AC26CBC
:1034A00091421DD00BB1002038BD051D2846FEF706
:1034B0006BFFE06CE062C0F13803A3610A4B1B684C
:1034C000984201D9084B186000EB80002946074B51
:1034D00003EB8000FEF734FF0120E5E70020704792
:1034E0000020E1E7900B0020B40600203007002008
:1034F000064B1A6813682BB90123036023B9D368FC
:10350000186870470023F8E700207047940C0020EB
:1035100008B54160006191420CD8D21A83699A4281
:1035200001D3012008BD011D094B1868FEF713FFE8
:103530000020F7E79A4201D2994206D2011D054BBD
:103540001868FEF708FF0020ECE70120EAE700BF5B
:10355000900C0020940C002030B583B000F05AFC91
:10356000114B1B681BB100F077FC03B030BD0F4D51
:103570002846FEF7D7FE0E4C2046FEF7D3FE0D4B35
:103580001D600D4B1C60002300930C4B0C4A102156
:103590000A20FEF7FFFF044B18600028E3D009491A
:1035A000FFF71CFADFE700BF8C0C0020AC0C0020FA
:1035B000980C0020940C0020900C0020940B00200C
:1035C000E40B0020C47B000810B588B0FFF7C4FFEF
:1035D000124B1B68CBB100240594069407AA06A9D8
:1035E00005A800F07FFA059B0293069B0193022336
:1035F00000932346079A0A490A48FFF7B7FB0A4B8C
:10360000186010B1012008B010BD4FF0500383F3D3
:103610001188BFF36F8FBFF34F8FFEE78C0C002034
:10362000CC7B00082D390008880C0020B8B19C46DE
:1036300003461848006858B300B585B00091019260
:10364000029305291CDCFFF7FBFE022810D00023A3
:103650001A4669460F480068FEF7E6FF15E04FF08E
:10366000500383F31188BFF36F8FBFF34F8FFEE7D3
:103670000023069A694607480068FEF7D5FF04E074
:10368000002362466946FFF793F805B05DF804FB36
:10369000002070478C0C002070B582B01B4B1B685B
:1036A0001A6862B3DB681E68DC68251D2846FEF7D1
:1036B0006BFE236A2046984794F8283013F0040FD5
:1036C000ECD0A36933449E4207D26360246129464B
:1036D0000E4B1868FEF73FFEE0E7002100910B4615
:1036E00032462046FFF7A2FF0028D7D14FF0500303
:1036F00083F31188BFF36F8FBFF34F8FFEE7044A48
:10370000106802490860136002B070BD940C00207C
:10371000900C002038B50546FFF7EAFB0446074B3E
:103720001B68834205D800232B60044B1C60204695
:1037300038BDFFF7B1FF01232B60F6E7840C0020B2
:1037400070B582B006460D4617490968C968CC684D
:10375000201DFEF719FE94F828C01CF0040F08D1B4
:103760002CF0010C84F828C0236A2046984702B048
:1037700070BDA16933462A4631442046FFF7C8FE92
:103780000028F1D0002100910B4632462046FFF779
:103790004DFF0028E8D14FF0500383F31188BFF3A9
:1037A0006F8FBFF34F8FFEE7940C002070B582B08F
:1037B00006460C46FFF794FB01A8FFF7ABFF019B01
:1037C00033BB0546E4B9B04213D22246711B124BFB
:1037D0001868FFF717F9FFF725FCD8B94FF0E02379
:1037E0004FF08052C3F8042DBFF34F8FBFF36F8F9C
:1037F00010E0FFF717FC29463046FFF7A1FF09E06C
:10380000064A126812680AB90124DEE71C46DCE7A2
:10381000FFF708FC02B070BD8C0C0020900C00205B
:1038200010B588B002E0049B002B0FDA002204A937
:103830003D4B1868FFF723F8002873D0049B002B3A
:10384000F1DA07990698059B9847ECE7069C6369AF
:1038500013B1201DFEF798FD03A8FFF75BFF049B43
:10386000092BE3D8DFE803F00505053037500505DF
:10387000303794F8283043F0010384F82830059B52
:10388000A169024619442046FFF742FE0028CDD028
:10389000236A2046984794F8283013F0040FC5D0C7
:1038A000A269002100910B46059802442046FFF7CB
:1038B000BDFE0028BAD14FF0500383F31188BFF347
:1038C0006F8FBFF34F8FFEE794F8283023F001038A
:1038D00084F82830AAE794F8283043F0010384F8EC
:1038E00028300599A16131B10346024601442046C2
:1038F000FFF70EFE9AE74FF0500383F31188BFF3F2
:103900006F8FBFF34F8FFEE794F8283013F0020F4C
:1039100004D023F0010384F8283087E7204600F024
:10392000D3F983E708B010BD8C0C002000B583B03C
:1039300001A8FFF7DDFD0199FFF738FFFFF770FFE2
:10394000F6E708B54FF0E0231B69FFF779FD012882
:1039500000D108BD00F0CEFAFBE70000EFF30583CD
:103960002BB9064B186828B901221A6070476FF00E
:10397000050070474FF0FF30704700BF78130020FC
:10398000EFF3058373B90A4B1B68012B0DD110B5FA
:103990000024084BDC77064B02221A60FFF754FA2A
:1039A000204610BD6FF0050070474FF0FF307047A4
:1039B0007813002000ED00E008B5EFF3058313B1A4
:1039C000FFF79CFA08BDFFF793FAFBE7F0B587B065
:1039D00000240594EFF3058404BBF8B1002A34D029
:1039E000156893692BB11E46013B372B02D9002085
:1039F00015E01826536813F0010F3FD1546984B1C4
:103A00004FEA940C93682BB1D7685B2F02D91769E2
:103A100007B184B943B14FF0FF330BB3059807B03A
:103A2000F0BD4FF0800CEDE7D368A3B91369ABB1DB
:103A30004FF0FF33F1E70293019700960B46624681
:103A40002946FFF793F90590E8E715460023182665
:103A50004FF0800CE1E74FF0FF33DEE70023DCE7B7
:103A600005AB019300960B461FFA8CF22946FFF72F
:103A7000B8F90128D2D000230593CFE70020CEE784
:103A800008B5EFF3058333B908B9002008BDFFF787
:103A900097FB0020FAE76FF00500F7E7EFF30583E7
:103AA00073B910B582B00446FFF722FA0190211ACB
:103AB000002908DD01A8FFF731FB002002B010BD8E
:103AC0006FF0050070476FF00300F7E7034B0360EA
:103AD000034B0B6080231360704700BF1C13002052
:103AE0001C110020034B0360034B0B604FF48073E9
:103AF00013607047C0100020C00C0020124A12F062
:103B0000070F1ED0D11D21F00701C1F570531344DA
:103B10000A460E480260002141601344083B23F02E
:103B200007030B48036059601960991A51601360CC
:103B3000084B1960084B1960084B4FF000421A609F
:103B400070474FF47053E4E79C1300209413002057
:103B500090130020881300208C1300207C13002079
:103B6000164B1A461B688342FBD3516802EB010CCB
:103B7000844509D0416800EB010C634509D003601E
:103B8000904219D01060704740680144516010465F
:103B9000F0E710B40A4C2468A3420BD05B681944C8
:103BA000416013681B680360904200D010605DF8AC
:103BB000044B70470460F7E7704700BF9413002080
:103BC0009013002038B50446FFF78AF9384B1B687C
:103BD000B3B1384B1B681C4250D1002C50D004F1BB
:103BE000080214F0070F02D022F007020832002A60
:103BF00055D0314B1B68934253D330490C6804E0D5
:103C0000FFF77CFFE5E721461C466368934202D23A
:103C10002368002BF7D1264B1B68A34243D00D68C5
:103C2000083523680B6063689B1A102B10D9A01805
:103C300010F0070F08D04FF0500383F31188BFF343
:103C40006F8FBFF34F8FFEE743606260FFF788FF1F
:103C5000626819490B689B1A0B60194909688B4205
:103C600001D217490B60134B1B6813436360002399
:103C70002360144A13680133136002E0002500E05A
:103C80000025FFF7CFF915F0070F0ED04FF05003C6
:103C900083F31188BFF36F8FBFF34F8FFEE70025CB
:103CA000EFE70025EDE70025EBE7284638BD00BF2C
:103CB000901300207C1300208C130020941300200C
:103CC0008813002084130020002834D038B504461F
:103CD000A0F1080550F8043C174A1268134208D1B5
:103CE0004FF0500383F31188BFF36F8FBFF34F8FF3
:103CF000FEE750F8081C41B14FF0500383F31188E0
:103D0000BFF36F8FBFF34F8FFEE723EA020340F844
:103D1000043CFFF7E5F854F8041C084A13680B4408
:103D200013602846FFF71CFF054A13680133136030
:103D3000FFF778F938BD70477C1300208C13002002
:103D40008013002082B0002301930D4B1B68B3F158
:103D5000FF3F08D04FF0500383F31188BFF36F8FFC
:103D6000BFF34F8FFEE74FF0500383F31188BFF38B
:103D70006F8FBFF34F8F019B002BFCD002B07047B9
:103D80000C00002008480068006880F308884FF0A5
:103D9000000080F3148862B661B6BFF34F8FBFF3A3
:103DA0006F8F00DF00BF000008ED00E0DFF80C00BF
:103DB000016841F4700101607047000088ED00E087
:103DC0004FF0807340F8043C21F0010140F8081CDA
:103DD000054B40F80C3C40F8202C6FF0020340F8F3
:103DE000243C4438704700BF453D000800000000F7
:103DF000074B19680868B0E8F04F80F30988BFF3F3
:103E00006F8F4FF0000080F311887047AFF3008090
:103E1000900B00204FF0500383F31188BFF36F8F96
:103E2000BFF34F8F0B4A136801331360012B00D08F
:103E300070474FF0E023D3F8043D13F0FF0FF7D0A5
:103E40004FF0500383F31188BFF36F8FBFF34F8F91
:103E5000FEE700BF0C000020094B1B6843B94FF080
:103E6000500383F31188BFF36F8FBFF34F8FFEE7CB
:103E7000013B034A13600BB983F31188704700BFFD
:103E80000C00002000000000000000000000000006
:103E9000EFF30980BFF36F8F154B1A681EF0100FF8
:103EA00008BF20ED108A20E9F04F10602DE90900CD
:103EB0004FF0500080F31188BFF34F8FBFF36F8F27
:103EC000FFF7A4F94FF0000080F3118809BC1968CE
:103ED0000868B0E8F04F1EF0100F08BFB0EC108A71
:103EE00080F30988BFF36F8F704700BFAFF3008086
:103EF000900B002008B54FF0500383F31188BFF3F7
:103F00006F8FBFF34F8FFFF701F828B14FF0E02319
:103F10004FF08052C3F8042D002383F3118808BDAD
:103F20004FF0E022002313619361054B1B680549A4
:103F3000A1FB03139B09013B5361072313617047E6
:103F400008000020D34D62104FF0E023D3F8002D7D
:103F50003D4B9A421CD04FF0E023D3F8002D3B4B51
:103F60009A421ED030B583B0394B1A78D2B2019242
:103F7000FF221A701B78DBB28DF803309DF80330F6
:103F800003F05003334A1370334B07221A601BE0CF
:103F90004FF0500383F31188BFF36F8FBFF34F8F40
:103FA000FEE74FF0500383F31188BFF36F8FBFF329
:103FB0004F8FFEE7284A1368013B13609DF80330DA
:103FC0005B00DBB28DF803309DF8033013F0800FF7
:103FD000F0D1214B1B68032B08D04FF0500383F323
:103FE0001188BFF36F8FBFF34F8FFEE71B021A4A92
:103FF000136003F4E0631360019BDBB2144A137097
:104000004FF0E024D4F8203D43F47003C4F8203D81
:10401000D4F8203D43F07043C4F8203DFFF780FF03
:1040200000250E4B1D60FFF7C1FED4F8343F43F06E
:104030004043C4F8343FFFF7A5FEFFF7E7F8FFF76A
:1040400081FE284603B030BD71C20F4170C20F41DE
:1040500000E400E0A04F00209C4F00200C00002056
:10406000EFF305830F2B0FD9114A9B5CDBB2114A8A
:1040700012789A4208D94FF0500383F31188BFF3A6
:104080006F8FBFF34F8FFEE74FF0E023D3F80C3D67
:1040900003F4E063084A1268934208D94FF05003D2
:1040A00083F31188BFF36F8FBFF34F8FFEE7704725
:1040B000F0E300E0A04F00209C4F002010B5034625
:1040C0000C4A0D490D48006840B10C480068034493
:1040D000521A934206D8094A136010BD0748084C8B
:1040E0000460F2E701F036FC0C2303604FF0FF3070
:1040F000F3E700BF0000022000040000A44F0020EE
:10410000905100200120704708B501F023FC1623D0
:1041100003604FF0FF3008BD08B54FF0FF31FFF7E7
:10412000F3FFFEE770B50C461646002506E0AFF338
:104130000080214601F8010B01350C46B542F6DB43
:10414000304670BD70B50C461646002504E014F8E4
:10415000010BAFF300800135B542F8DB304670BD8E
:104160004FF0FF3070474FF400534B600020704712
:10417000012070470020704708B50B480B4B0360C7
:104180000B4B436000238360C3604FF480420261A5
:1041900043618361C361036200F044FA00B908BD62
:1041A000FCF7ACFEFBE700BFA84F00200054004026
:1041B000A086010030B589B00023039304930593D2
:1041C000069307930268144B9A4201D009B030BDA0
:1041D00000250195114C236B43F002032363236BED
:1041E00003F002030193019B4FF4407303931223E6
:1041F0000493032306930423079303A90848FDF7B8
:10420000FFFE0295236C43F400132364236C03F434
:1042100000130293029BD9E700540040003802408B
:104220000004024003685A6912F4806F01D1002033
:1042300070476FF480625A6100230363202280F884
:104240003D2080F83E30026C42F00402026480F8A7
:104250003C30012070472DE9F04106460C461746D8
:1042600098463BE0FEF74EF8069BC01A404502D840
:10427000B8F1000F32D1012D18D033689B6924EAC0
:1042800003039BB2B3FA83F35B099F4226D1002359
:104290003363202286F83D2086F83E30326C42F0AF
:1042A0002002326486F83C30012027E033685B69E5
:1042B00024EA03039BB2B3FA83F35B09E5E73368AF
:1042C0005B6924EA030C1FFA8CFCBCFA8CFC4FEAF5
:1042D0005C1C674511D1B8F1FF3FC3D1C4F307455A
:1042E000012DECD033689B6924EA030C1FFA8CFC87
:1042F000BCFA8CFC4FEA5C1CEBE70020BDE8F081C7
:104300002DE9F84305460E469046994653E01A6853
:1043100042F400721A602B686FF480625A610023C5
:104320002B63202285F83D2085F83E302A6C42F030
:1043300004022A6485F83C3001204AE0FDF7E2FFE0
:10434000A0EB0900404502D8B8F1000F33D1012F8E
:1043500017D02B689B6926EA03039BB2003B18BF6A
:10436000012343B300232B63202285F83D2085F8E9
:104370003E302A6C42F020022A6485F83C3001204D
:1043800027E02B685B6926EA03039BB2003B18BF5A
:104390000123E6E72B689C6926EA0404A4B2003CEA
:1043A00018BF0124A4B12B685A6912F4806FAED1F2
:1043B000B8F1FF3FC2D1C6F30747012FEAD12B68FE
:1043C0005C6926EA0404A4B2003C18BF0124E9E7B2
:1043D0000020BDE8F8830000F0B583B004460D4628
:1043E00016461F46C36A082B0DD0012B0BD013F5C0
:1043F000803F08D0036B122B0AD10268136843F484
:104400008073136004E02268136843F480731360C0
:104410000097334600224FF001112046FFF71BFFA3
:1044200080B92369B3F5804F16D1236805F0FE05E6
:104430001D613B46324613492046FFF761FFF8B93C
:1044400003B0F0BD23681B6813F4807F02D04FF4E3
:10445000007323640320F3E7EB11226803F00603E3
:1044600043F0F00313613B46324607492046FFF70D
:1044700047FF18B92368EDB21D61DAE70120DFE7D5
:104480000120DDE7020001000800010070B50446CC
:104490000D46164623685B6913F0800F21D1204634
:1044A000FFF7C0FEF8B9B5F1FF3FF3D0FDF72AFFE3
:1044B000801BA84201D8002DECD123685B6913F062
:1044C000800FE7D100232363202284F83D2084F865
:1044D0003E30226C42F02002226484F83C300120FD
:1044E00000E0002070BD0120FCE700002DE9F04352
:1044F00085B004460D4691461F46DDF830800D9E7E
:104500000368196841F480711960009643460022DF
:104510004FF00111FFF79FFE60B9236805F0FE051B
:104520001D613346424626492046FFF7E9FE68B141
:10453000012008E023681B6813F4807F02D04FF449
:1045400000732364032005B0BDE8F08300230393C8
:1045500023685A6903929B690393039B3246414641
:104560002046FFF793FF30B9012F0FD123685FFA80
:1045700089F61E61E7E7236C042B01D00120E2E7F6
:104580002268136843F400731360F7E723684FEA67
:1045900019221A61324641462046FFF777FF20B9BB
:1045A00023685FFA89F61E61CDE7236C042B01D0E6
:1045B0000120C8E72268136843F400731360F7E72B
:1045C0000200010070B504460D46164623685B697B
:1045D00013F0040F21D12046FFF724FEF8B9B5F1FE
:1045E000FF3FF3D0FDF78EFE801BA84201D8002DBF
:1045F000ECD123685B6913F0040FE7D10023236338
:10460000202284F83D2084F83E30226C42F02002C3
:10461000226484F83C30012000E0002070BD0120BD
:10462000FCE70000002800F0CC8070B5044690F84C
:104630003D30002B77D0242384F83D302268136866
:1046400023F0010313602268136843F400431360EE
:104650002268136823F400431360FDF793FC62683B
:104660005A4B9A4264D85A4B98428CBF002301237C
:10467000002B40F0A8805749A1FB00318B0C256826
:104680006A6822F03F0242EA91426A6021680A6A3F
:1046900022F03F0266684D4DAE424FD801331343BE
:1046A0000B622168CA6922F44F4222F0FF0265685A
:1046B000464B9D424CD8431E6D00B3FBF5F30133CE
:1046C00040F6FC70034278D0C3F30B031A43CA616F
:1046D00021680B6823F0C003E269206A0243134398
:1046E0000B6021688B6823F4034323F0FF032269E6
:1046F000E068024313438B602168CB6823F0FF031B
:104700006269A06902431343CB602268136843F0D7
:104710000103136000202064202384F83D302063CF
:1047200084F83E0070BD80F83C30FFF743FD82E71F
:10473000294B98428CBF0023012399E74FF49675CB
:1047400005FB03F3254DA5FB03539B090133A6E7A6
:10475000A668BEB9431E05EB450CB3FBFCF3013361
:10476000C3F30B03B3FA83F35B0943BBC6B9431E20
:1047700005EB4505B3FBF5F30133C3F30B0343F43A
:104780000043A3E7431E05EB850C0CEB8C0CB3FB3D
:10479000FCF30133C3F30B03B3FA83F35B09E4E7E0
:1047A000431E05EB850505EB8505B3FBF5F30133EA
:1047B000C3F30B0343F4404388E7042386E7012354
:1047C00084E7012070470120ACE700BFA08601000C
:1047D0007F841E0083DE1B43FF083D00D34D621023
:1047E0002DE9F04385B004460F46914698460C9E4D
:1047F000FDF788FD054694F83D00C0B2202804D09E
:104800000227384605B0BDE8F08300951923012240
:104810004F492046FFF71FFD002840F0928094F892
:104820003C30012B00F08F80012384F83C3023685A
:104830001A6812F0010F03D11A6842F001021A60DF
:104840002268136823F400631360212384F83D3049
:10485000102384F83E3000232364C4F82490A4F885
:104860002A80638D23853B4BE3622B4632463946D3
:104870002046FFF7B1FD0746002866D100230393C9
:1048800023685A6903929B690393039B11E0236C8D
:10489000042B01D00127B4E72268136843F40073A6
:1048A0001360F7E72A4631462046FFF78BFE0028C3
:1048B0002ED1238D002B36D02A4631462046FFF7D5
:1048C000E5FD0028E3D1626A236812781A61606A04
:1048D000431C6362618D89B2013989B26185238D80
:1048E000013B9BB223852268516911F0040FD9D096
:1048F000002BD7D043781361636A01336362638D01
:104900009BB2013B9BB26385238D013B2385C9E7A5
:10491000236C042B01D0012773E72268136843F44A
:1049200000731360F7E72268136843F400731360A1
:10493000202384F83D30002384F83E3084F83C3056
:104940005FE702275DE702275BE7012759E700BF22
:10495000020010000000FFFF2DE9F04383B0044681
:104960000F46904699460C9EFDF7CCFC054694F800
:104970003D00C0B2202803D0022003B0BDE8F08380
:104980000095192301224B492046FFF764FC0028BB
:1049900040F0898094F83C30012B00F086800123A0
:1049A00084F83C3023681A6812F0010F03D11A68AA
:1049B00042F001021A602268136823F40063136056
:1049C000212384F83D30402384F83E3000232364C3
:1049D0000A9B6362BDF82C306385638D2385364B5B
:1049E000E362019500964B46424639462046FFF762
:1049F0007DFD00285BD1238D002B35D02A46314622
:104A00002046FFF743FD20BB626A236812781A61D3
:104A1000626A531C6362218D013989B22185638DDD
:104A20009BB2013B9BB263852368586910F0040F69
:104A3000E1D00029DFD052781A61636A01336362E2
:104A4000238D013B2385638D9BB2013B9BB2638524
:104A5000D1E7236C042B01D001208EE72268136874
:104A600043F400731360F7E72A4631462046FFF708
:104A7000A9FD50B1236C042B01D001207DE72268F1
:104A8000136843F400731360F7E72268136843F474
:104A900000731360202384F83D30002384F83E30F7
:104AA00084F83C3069E7022067E7022065E70120CF
:104AB00063E700BF020010000000FFFF08B50A48CE
:104AC0000A4B03604FF4E133436000238360C3600B
:104AD00003610C2242618361C36100F03AF900B9BD
:104AE00008BDFCF70BFAFBE7FC4F00200044004038
:104AF00000B589B0002303930493059306930793AD
:104B00000268154B9A4202D009B05DF804FB0021FF
:104B1000019103F5FA331A6C42F400321A641A6CEC
:104B200002F400320192019A02911A6B42F00102E2
:104B30001A631B6B03F001030293029B0C23039384
:104B400002230493032306930723079303A903482F
:104B5000FDF756FAD8E700BF0044004000000240CD
:104B6000026802F10C0353E8003F23F490730C3207
:104B700042E800310029F3D1026802F1140353E83E
:104B8000003F23F00103143242E800310029F3D141
:104B9000036B012B05D0202380F8423000230363F0
:104BA0007047026802F10C0353E8003F23F0100342
:104BB0000C3242E800310029F3D1ECE710B504468D
:104BC0000268136923F44053C1680B43136183687F
:104BD00002691A4343691A43C3691A430168CB68DF
:104BE00023F4164323F00C031343CB60026853698C
:104BF00023F4407381690B4353610368314A934244
:104C000006D002F58062934202D0FDF7BBF901E0C5
:104C1000FDF7C8F9E369B3F5004F29D00021031867
:104C200049411B1841F10001C90041EA5371DB0001
:104C3000181863684FEA83024FEA937341F1000149
:104C4000FBF7BAFF204AA2FB00314909642303FBAA
:104C500011031B013233A2FB03235B0903F0F002B3
:104C600002EB011203F00F03216813448B6010BDA7
:104C70000023021843EB0301121841F10001C9009F
:104C800041EA5271D200101841F100016268921895
:104C90005B41FBF791FF0C4AA2FB003149096423F9
:104CA00003FB1103DB003233A2FB03235B095A0031
:104CB00002F4F87202EB011203F0070321681344B7
:104CC0008B60D4E7001001401F85EB512DE9F043C4
:104CD00083B005460E4617469946DDF828802B68B6
:104CE0001C6836EA04040CBF01240024BC4228D10D
:104CF000B8F1FF3FF3D0FDF705FBA0EB09004045FD
:104D000023D8B8F1000F22D02B68DA6812F0040F14
:104D1000E5D0802EE3D0402EE1D01A6812F0080FC3
:104D2000DDD0002401941A6801925B680193019B15
:104D30002846FFF715FF08236B6485F840400120E3
:104D400000E0002003B0BDE8F0830320FAE7032071
:104D5000F8E760B310B5044690F8413013B324234C
:104D600084F841302268D36823F40053D36020468E
:104D7000FFF724FF2268136923F49043136122682C
:104D8000536923F02A0353612268D36843F4005324
:104D9000D36000206064202384F8413084F84230DE
:104DA000606310BD80F84030FFF7A2FED7E7012016
:104DB00070472DE9F04182B01E4690F84130DBB2D9
:104DC000202B56D104460D469046002955D00AB9ED
:104DD00001204FE000234364212380F84130FDF798
:104DE00091FA0746A4F82480A4F82680A368B3F5B6
:104DF000805F02D04FF0000814E023692BB34FF01E
:104E000000080FE0202384F84130032032E038F816
:104E1000023B2268C3F308035360E28C92B2013A6A
:104E200092B2E284E38C9BB293B100963B4600229F
:104E300080212046FFF74AFF0028E3D1002DE6D06D
:104E400015F8012B23685A60E7E7A8460025E9E733
:104E500000963B46002240212046FFF737FF18B955
:104E6000202384F8413005E0202384F841300320DA
:104E700000E0022002B0BDE8F0810120FAE7000066
:104E8000DFF834D0FDF744FA0C480D490D4A0023F1
:104E900002E0D458C4500433C4188C42F9D30A4AEF
:104EA0000A4C002301E013600432A242FBD300F05D
:104EB00057FDFCF775F87047000002200000002045
:104EC000D80100203CA00408D80100209051002007
:104ED000FEE72DE9FF4757EC106B002F0C461946F3
:104EE0003B46BBBF07F100431F4600232D230B7039
:104EF0000D9BDDF830A0914623F02008BCBF324660
:104F00001646B8F1460F05D0B8F1450F00D101346F
:104F1000022100E0032103AB019302AB009347ECB5
:104F2000106B5346224600F0DFFDB8F1470F0546EF
:104F300019D119F0010F0ED000EB04090022002353
:104F400030463946FBF7C8FD08B1CDF80C90302249
:104F5000039B4B451ED3039B0E9A5B1B2846136095
:104F600004B0BDE8F087B8F1460F00EB0409E5D1C5
:104F70000378302B0AD10022002330463946FBF754
:104F8000ABFD18B9C4F10104CAF80040DAF80030EA
:104F90009944D3E7591C03911A70D9E7F7B5002952
:104FA000BABF49422D232B2309290270437029DD02
:104FB0000DF107031D460A271A46B1FBF7F607FB5A
:104FC0001614303402F8014C0C46632C03F1FF3305
:104FD0003146F1DC3031941E03F8011C411C23469C
:104FE000AB420AD30DF109039B1AAC4288BF0023E0
:104FF00002330344181A03B0F0BD13F8016B01F833
:10500000016FEDE7302330318370C170031DF1E78C
:105010002DE9F04F8DB00C46DDF8588016461F463E
:10502000054600F0C5FC036804931846FBF728F911
:1050300000230A93D8F800300590073323F00703C4
:1050400003F1080294F818A0D4F800B0C8F80020C2
:10505000D3E9008929F000430793CDF81880C4E90B
:105060001289DDE906019C4B4FF0FF32FBF766FD2C
:1050700070BBDDE90601984B4FF0FF32FBF740FDB6
:1050800030BB0022002340464946FBF72FFD10B1FC
:105090002D2384F84330914A914BBAF1470F8CBFCE
:1050A00090469846032323612BF0040323604FF0BE
:1050B0000009009733460BAA2146284600F0D2F992
:1050C000013040F08D804FF0FF300DB0BDE8F08F23
:1050D00042464B4640464946FBF730FD40B14B4601
:1050E000002BBCBF2D2384F843307E4A7E4BD4E78F
:1050F00063680AF0DF0206925A1C3BD10623636004
:105100004BF480620023226003930AABCDE901A334
:1051100009AB0093616849EC108B0DF1230328461D
:10512000FFF7D7FE069B0999472B804629D1C81C5B
:1051300002DB6368994241DDAAF1020A5FFA8AFA4A
:105140000139524604F150000991FFF727FF0A9AEE
:105150001318012A8146236102DC2268D20701D597
:10516000013323619DF82330002BA2D02D2384F836
:1051700043309EE7069A472AC2D1002BC0D10123B3
:10518000BDE7BAF1650FDBD9BAF1660F18D1002976
:1051900063680BDD216113B92268D00702D50133A2
:1051A0000B442361A1654FF00009DBE713B92268C6
:1051B000D20701D50233F4E70123F2E74FF0670A83
:1051C0000A9B994205DB23682161D807EAD54B1C6D
:1051D000E7E70029D4BFC1F1020201221344E0E74E
:1051E00023685A0507D42369424631462846B84702
:1051F00001302BD167E7BAF1650F40F2DD80D4E9C9
:10520000120100220023FBF767FC002833D0374A45
:10521000012331462846B84701303FF454AFDDE959
:105220000938434502DB2368D8070FD5DDE904239D
:1052300031462846B84701303FF445AF4FF00009EA
:1052400008F1FF3804F11A0AC84509DC23689B07F6
:1052500000F10381E0680B9B9842B8BF184634E721
:105260000123524631462846B84701303FF42BAF60
:1052700009F10109E8E7099B002B39DC1B4A0123EE
:1052800031462846B84701303FF41DAFDDE9093902
:1052900059EA030302D12368D907D7D5DDE90423EE
:1052A00031462846B84701303FF40DAF4FF0000AB1
:1052B00004F11A0B099B5B42534501DC4B4693E713
:1052C00001235A4631462846B84701303FF4FBAE29
:1052D0000AF1010AEEE700BFFFFFEF7FBC9C040864
:1052E000B89C0408C49C0408C09C0408C89C04081A
:1052F000A36DDDF828A05345A8BF5346002B99465F
:1053000036DC4FF0000B29EAE97904F11A02A36DAB
:105310000693A3EB09035B4531DC099B9A453ADC14
:105320002368DA0737D4099BAAEB0309069BAAEB8B
:1053300003039945A8BF9946B9F1000F33DC4FF03C
:10534000000829EAE97904F11A0B099BAAEB030387
:10535000A3EB090343457FF779AF01235A46314652
:105360002846B84701303FF4AEAE08F10108ECE73B
:10537000424631462846B8470130C2D1A3E6012350
:10538000314628460692B84701303FF49CAE069A53
:105390000BF1010BBBE7DDE9042331462846B84792
:1053A0000130C0D18FE6069A4B464244314628462A
:1053B000B8470130C3D186E6DDF828A0BAF1010F65
:1053C00001DCDB0736D50123424631462846B84783
:1053D00001303FF478AEDDE9042331462846B84772
:1053E00001303FF470AED4E91201002200230AF12B
:1053F000FF3AFBF771FBC0B9534608F10102314691
:105400002846B84701300CD15DE601235A463146A3
:105410002846B84701303FF456AE08F10108D045A0
:10542000F3DB4B4604F15002DFE64FF0000804F1D5
:105430001A0BF4E701234246E1E701234A463146CD
:105440002846B84701303FF43EAE08F10108E36852
:105450000B995B1A4345F0DCFCE64FF0000804F1C1
:105460001909F4E72DE9F047164698468A680B6952
:10547000DDF820909342B8BF1346336091F8432083
:1054800007460C460AB1013333602368990642BFD0
:10549000336802333360256815F0060506D104F140
:1054A000190AE36832689B1AAB4226DC94F8433051
:1054B0002268003B18BF012392062BD404F143025B
:1054C00041463846C84701301ED02368226903F0A0
:1054D0000603042B02BFE5683368ED1AA3680CBF0E
:1054E00025EAE57500259342C4BF9B1AED180026F6
:1054F0001A34B5421AD1002008E001235246414631
:105500003846C847013003D14FF0FF30BDE8F0877F
:105510000135C6E7E1185A1C302081F843002244C7
:1055200094F8451082F843100233C7E7012322465E
:1055300041463846C8470130E6D00136D9E7000079
:105540002DE9FF470F7E0C9E782F914680460C4632
:105550009A4601F1430207D8622F0AD8002F00F0C3
:10556000D180582F00F0B88004F1420684F84270D0
:105570003AE0A7F16303152BF6D801A151F823F007
:10558000D9550008ED55000869550008695500080F
:105590006955000869550008ED550008695500086F
:1055A000695500086955000869550008EB56000860
:1055B00017560008A55600086955000869550008E7
:1055C0000D5700086955000817560008695500086E
:1055D00069550008AD56000833681A1D1B68326013
:1055E00004F1420684F8423001239CE033682068CD
:1055F000191D3160060601D51D6803E04506FBD57F
:10560000B3F90050002D03DA2D236D4284F84330A6
:1056100058480A2311E021683368080653F8045BF0
:1056200002D4490648BFADB26F2F5248336014BF51
:105630000A230823002184F843106668A660002E20
:1056400005DB21682E4321F0040121604BD0164672
:10565000B5FBF3F103FB1157C75D06F8017D2F463B
:10566000BB420D46F4D9082B0BD12368DF0708D5C0
:10567000236961689942DEBF302306F8013C06F1D8
:10568000FF36921B2261CDF800A04B4603AA2146AB
:105690004046FFF7E7FE01304AD14FF0FF3004B03B
:1056A000BDE8F087236843F0200323603248782761
:1056B00084F84570236831681F0651F8045B02D4F2
:1056C0005F0648BFADB23160D90744BF43F0200345
:1056D00023601DB11023ADE72648E9E7236823F0D6
:1056E00020032360F6E71646BDE733682568616945
:1056F000181D30602E061B6801D5196002E068068F
:10570000FBD51980002323611646BCE733681A1DB8
:1057100032601E68626800213046FAF761FD08B108
:10572000801B606063682361002384F84330AAE72C
:105730002369324649464046D0470130ADD0236800
:105740009B0713D4E068039B9842B8BF1846A6E7AE
:105750000123324649464046D04701309DD00135AD
:10576000E36803995B1AAB42F2DCEBE7002504F136
:105770001906F5E7CA9C0408DB9C04080EB410B5B2
:105780009DB01FAB029006906FF000410A48079150
:1057900004910A4953F8042B0591002402A90068DA
:1057A00001931B9400F0CCFF029B1C701DB0BDE860
:1057B000104003B0704700BF1C0000200802FFFF2C
:1057C000002310B50446C0E90033C0E90433836008
:1057D00081814366C2818361194608225C3000F0F2
:1057E000B1F80D4B63620D4BA3620D4BE3620D4BA1
:1057F00023630D4B24629C4206D003F1680294425D
:1058000002D0D0339C4205D104F15800BDE81040CD
:1058100000F0CAB810BD00BFF17200081373000891
:105820004B7300086F73000844500020024A03497C
:10583000034800F069B800BF10000020956B000815
:105840002000002041680C4B994210B5044601D05D
:1058500001F0A0F9A168094B994202D0204601F05D
:1058600099F9E168064B994204D02046BDE8104002
:1058700001F090B910BD00BF44500020AC50002092
:105880001451002010B50B4B0B4C0C4A1A602046EB
:1058900000220421FFF794FF04F16800012209218E
:1058A000FFF78EFF04F1D0000222BDE81040122164
:1058B000FFF786BF7C510020445000202D5800087F
:1058C000014800F072B800BF81510020014800F08B
:1058D0006DB800BF8151002010B50446FFF7F0FFFE
:1058E000236A1BB1BDE81040FFF7F0BF044B2362F1
:1058F000044B1B68002BF5D1FFF7C4FFF2E700BF94
:10590000455800087C5100202DE9F8430746884699
:1059100014460026D4E90195B9F1010905D524689A
:10592000002CF7D13046BDE8F883AB89012B07D9AD
:10593000B5F90E30013303D029463846C047064337
:105940006835E9E702440346934200D1704703F803
:10595000011BF9E7014B1868704700BF1C000020CD
:1059600070B50D4D0D4C641BA4100026A64209D144
:105970000B4D0C4C02F0F8F8641BA4100026A64254
:1059800005D170BD55F8043B98470136EEE755F850
:10599000043B98470136F2E734A0040834A0040819
:1059A00034A0040838A0040870477047704700000E
:1059B000004870475C0100200A44914200F1FF3327
:1059C00000D1704710B511F8014B03F8014F914217
:1059D000F9D110BD2DE9F74F03690C69A3420746C1
:1059E0007EDB013C01F11408A30000F114050093D3
:1059F00005EB8403019358F8243055F82420013333
:105A00009A4208EB8409B2FBF3F62ED34FF0000A5A
:105A1000C446AE46D3465CF8043B98B206FB00A0F1
:105A2000020C1B0C06FB0323DEF8002080B292B2AE
:105A3000121A5A44DEF800004FEA134A9BB2C3EB35
:105A4000224303EB104392B242EA0342E1454EF88F
:105A5000042B4FEA234BDED2009BEB582BB9019B62
:105A6000043B9D421A462FD33C61384601F038FB77
:105A7000002825DB2946002058F8042BD1F800C067
:105A80001FFA82FE1FFA8CF3A3EB0E030344120CE1
:105A9000C2EB234202EB1C429BB243EA0243C145E4
:105AA00041F8043B4FEA2240E6D255F8242005EBAA
:105AB000840322B9043B9D421A460BD33C61013654
:105AC000304603B0BDE8F08F1268043B002ACBD10A
:105AD000013CC6E71268043B002AEFD1013CEAE72B
